{
	"contracts/3_Cross_transfer.sol": {
		"CrossTrans": {
			"abi": [
				{
					"inputs": [
						{
							"internalType": "address",
							"name": "ERC20_tokenAddress",
							"type": "address"
						},
						{
							"internalType": "address",
							"name": "_routerAddress",
							"type": "address"
						}
					],
					"stateMutability": "nonpayable",
					"type": "constructor"
				},
				{
					"anonymous": false,
					"inputs": [
						{
							"indexed": true,
							"internalType": "address",
							"name": "user",
							"type": "address"
						},
						{
							"indexed": false,
							"internalType": "uint256",
							"name": "amount",
							"type": "uint256"
						},
						{
							"indexed": false,
							"internalType": "bool",
							"name": "status",
							"type": "bool"
						}
					],
					"name": "CrossFail",
					"type": "event"
				},
				{
					"anonymous": false,
					"inputs": [
						{
							"indexed": true,
							"internalType": "address",
							"name": "user",
							"type": "address"
						},
						{
							"indexed": false,
							"internalType": "uint256",
							"name": "amount",
							"type": "uint256"
						},
						{
							"indexed": false,
							"internalType": "bool",
							"name": "status",
							"type": "bool"
						}
					],
					"name": "CrossSuccess",
					"type": "event"
				},
				{
					"anonymous": false,
					"inputs": [
						{
							"indexed": true,
							"internalType": "address",
							"name": "user",
							"type": "address"
						},
						{
							"indexed": false,
							"internalType": "address",
							"name": "toaddress",
							"type": "address"
						},
						{
							"indexed": false,
							"internalType": "address",
							"name": "valiIP",
							"type": "address"
						},
						{
							"indexed": false,
							"internalType": "address[4]",
							"name": "randomIPs",
							"type": "address[4]"
						},
						{
							"indexed": false,
							"internalType": "uint256",
							"name": "amount",
							"type": "uint256"
						},
						{
							"indexed": false,
							"internalType": "bool",
							"name": "status",
							"type": "bool"
						}
					],
					"name": "TokensStaked",
					"type": "event"
				},
				{
					"anonymous": false,
					"inputs": [
						{
							"indexed": true,
							"internalType": "address",
							"name": "user",
							"type": "address"
						},
						{
							"indexed": false,
							"internalType": "address",
							"name": "toaddress",
							"type": "address"
						},
						{
							"indexed": false,
							"internalType": "address",
							"name": "valiIP",
							"type": "address"
						},
						{
							"indexed": false,
							"internalType": "uint256",
							"name": "amount",
							"type": "uint256"
						},
						{
							"indexed": false,
							"internalType": "bool",
							"name": "status",
							"type": "bool"
						}
					],
					"name": "test_TokensStaked",
					"type": "event"
				},
				{
					"inputs": [
						{
							"internalType": "address",
							"name": "sendaddr",
							"type": "address"
						},
						{
							"internalType": "uint256",
							"name": "amount",
							"type": "uint256"
						}
					],
					"name": "CrossTransactionFail",
					"outputs": [],
					"stateMutability": "nonpayable",
					"type": "function"
				},
				{
					"inputs": [
						{
							"internalType": "address",
							"name": "sendaddr",
							"type": "address"
						},
						{
							"internalType": "uint256",
							"name": "amount",
							"type": "uint256"
						}
					],
					"name": "CrossTransactionSuccess",
					"outputs": [],
					"stateMutability": "nonpayable",
					"type": "function"
				},
				{
					"inputs": [
						{
							"internalType": "uint256",
							"name": "amount",
							"type": "uint256"
						},
						{
							"internalType": "address",
							"name": "toaddr",
							"type": "address"
						}
					],
					"name": "StartCrossTrans",
					"outputs": [],
					"stateMutability": "nonpayable",
					"type": "function"
				},
				{
					"inputs": [
						{
							"internalType": "address",
							"name": "",
							"type": "address"
						}
					],
					"name": "balances",
					"outputs": [
						{
							"internalType": "uint256",
							"name": "",
							"type": "uint256"
						}
					],
					"stateMutability": "view",
					"type": "function"
				},
				{
					"inputs": [
						{
							"internalType": "address",
							"name": "from",
							"type": "address"
						},
						{
							"internalType": "address",
							"name": "to",
							"type": "address"
						},
						{
							"internalType": "uint256",
							"name": "amount",
							"type": "uint256"
						}
					],
					"name": "executeTransfer",
					"outputs": [],
					"stateMutability": "nonpayable",
					"type": "function"
				},
				{
					"inputs": [
						{
							"internalType": "uint256",
							"name": "amount",
							"type": "uint256"
						},
						{
							"internalType": "address",
							"name": "toaddr",
							"type": "address"
						}
					],
					"name": "test_StartCrossTrans",
					"outputs": [],
					"stateMutability": "nonpayable",
					"type": "function"
				},
				{
					"inputs": [],
					"name": "token",
					"outputs": [
						{
							"internalType": "contract IERC20",
							"name": "",
							"type": "address"
						}
					],
					"stateMutability": "view",
					"type": "function"
				},
				{
					"inputs": [
						{
							"internalType": "address",
							"name": "",
							"type": "address"
						}
					],
					"name": "validators",
					"outputs": [
						{
							"internalType": "address",
							"name": "",
							"type": "address"
						}
					],
					"stateMutability": "view",
					"type": "function"
				}
			],
			"devdoc": {
				"kind": "dev",
				"methods": {},
				"version": 1
			},
			"evm": {
				"assembly": "    /* \"contracts/3_Cross_transfer.sol\":399:4697  contract CrossTrans {... */\n  mstore(0x40, 0x80)\n    /* \"contracts/3_Cross_transfer.sol\":1128:1321  constructor(address ERC20_tokenAddress,address _routerAddress) {... */\n  callvalue\n  dup1\n  iszero\n  tag_1\n  jumpi\n  0x00\n  dup1\n  revert\ntag_1:\n  pop\n  mload(0x40)\n  sub(codesize, bytecodeSize)\n  dup1\n  bytecodeSize\n  dup4\n  codecopy\n  dup2\n  dup2\n  add\n  0x40\n  mstore\n  dup2\n  add\n  swap1\n  tag_2\n  swap2\n  swap1\n  tag_3\n  jump\t// in\ntag_2:\n    /* \"contracts/3_Cross_transfer.sol\":1216:1234  ERC20_tokenAddress */\n  dup2\n    /* \"contracts/3_Cross_transfer.sol\":1201:1206  token */\n  0x00\n  dup1\n    /* \"contracts/3_Cross_transfer.sol\":1201:1235  token = IERC20(ERC20_tokenAddress) */\n  0x0100\n  exp\n  dup2\n  sload\n  dup2\n  0xffffffffffffffffffffffffffffffffffffffff\n  mul\n  not\n  and\n  swap1\n  dup4\n  0xffffffffffffffffffffffffffffffffffffffff\n  and\n  mul\n  or\n  swap1\n  sstore\n  pop\n    /* \"contracts/3_Cross_transfer.sol\":1261:1275  _routerAddress */\n  dup1\n    /* \"contracts/3_Cross_transfer.sol\":1245:1258  routerAddress */\n  0x01\n  0x00\n    /* \"contracts/3_Cross_transfer.sol\":1245:1275  routerAddress = _routerAddress */\n  0x0100\n  exp\n  dup2\n  sload\n  dup2\n  0xffffffffffffffffffffffffffffffffffffffff\n  mul\n  not\n  and\n  swap1\n  dup4\n  0xffffffffffffffffffffffffffffffffffffffff\n  and\n  mul\n  or\n  swap1\n  sstore\n  pop\n    /* \"contracts/3_Cross_transfer.sol\":1296:1314  ERC20_tokenAddress */\n  dup2\n    /* \"contracts/3_Cross_transfer.sol\":1285:1293  burnaddr */\n  0x02\n  0x00\n    /* \"contracts/3_Cross_transfer.sol\":1285:1314  burnaddr = ERC20_tokenAddress */\n  0x0100\n  exp\n  dup2\n  sload\n  dup2\n  0xffffffffffffffffffffffffffffffffffffffff\n  mul\n  not\n  and\n  swap1\n  dup4\n  0xffffffffffffffffffffffffffffffffffffffff\n  and\n  mul\n  or\n  swap1\n  sstore\n  pop\n    /* \"contracts/3_Cross_transfer.sol\":1128:1321  constructor(address ERC20_tokenAddress,address _routerAddress) {... */\n  pop\n  pop\n    /* \"contracts/3_Cross_transfer.sol\":399:4697  contract CrossTrans {... */\n  jump(tag_6)\n    /* \"#utility.yul\":88:205   */\ntag_8:\n    /* \"#utility.yul\":197:198   */\n  0x00\n    /* \"#utility.yul\":194:195   */\n  dup1\n    /* \"#utility.yul\":187:199   */\n  revert\n    /* \"#utility.yul\":334:460   */\ntag_10:\n    /* \"#utility.yul\":371:378   */\n  0x00\n    /* \"#utility.yul\":411:453   */\n  0xffffffffffffffffffffffffffffffffffffffff\n    /* \"#utility.yul\":404:409   */\n  dup3\n    /* \"#utility.yul\":400:454   */\n  and\n    /* \"#utility.yul\":389:454   */\n  swap1\n  pop\n    /* \"#utility.yul\":334:460   */\n  swap2\n  swap1\n  pop\n  jump\t// out\n    /* \"#utility.yul\":466:562   */\ntag_11:\n    /* \"#utility.yul\":503:510   */\n  0x00\n    /* \"#utility.yul\":532:556   */\n  tag_20\n    /* \"#utility.yul\":550:555   */\n  dup3\n    /* \"#utility.yul\":532:556   */\n  tag_10\n  jump\t// in\ntag_20:\n    /* \"#utility.yul\":521:556   */\n  swap1\n  pop\n    /* \"#utility.yul\":466:562   */\n  swap2\n  swap1\n  pop\n  jump\t// out\n    /* \"#utility.yul\":568:690   */\ntag_12:\n    /* \"#utility.yul\":641:665   */\n  tag_22\n    /* \"#utility.yul\":659:664   */\n  dup2\n    /* \"#utility.yul\":641:665   */\n  tag_11\n  jump\t// in\ntag_22:\n    /* \"#utility.yul\":634:639   */\n  dup2\n    /* \"#utility.yul\":631:666   */\n  eq\n    /* \"#utility.yul\":621:684   */\n  tag_23\n  jumpi\n    /* \"#utility.yul\":680:681   */\n  0x00\n    /* \"#utility.yul\":677:678   */\n  dup1\n    /* \"#utility.yul\":670:682   */\n  revert\n    /* \"#utility.yul\":621:684   */\ntag_23:\n    /* \"#utility.yul\":568:690   */\n  pop\n  jump\t// out\n    /* \"#utility.yul\":696:839   */\ntag_13:\n    /* \"#utility.yul\":753:758   */\n  0x00\n    /* \"#utility.yul\":784:790   */\n  dup2\n    /* \"#utility.yul\":778:791   */\n  mload\n    /* \"#utility.yul\":769:791   */\n  swap1\n  pop\n    /* \"#utility.yul\":800:833   */\n  tag_25\n    /* \"#utility.yul\":827:832   */\n  dup2\n    /* \"#utility.yul\":800:833   */\n  tag_12\n  jump\t// in\ntag_25:\n    /* \"#utility.yul\":696:839   */\n  swap3\n  swap2\n  pop\n  pop\n  jump\t// out\n    /* \"#utility.yul\":845:1352   */\ntag_3:\n    /* \"#utility.yul\":924:930   */\n  0x00\n    /* \"#utility.yul\":932:938   */\n  dup1\n    /* \"#utility.yul\":981:983   */\n  0x40\n    /* \"#utility.yul\":969:978   */\n  dup4\n    /* \"#utility.yul\":960:967   */\n  dup6\n    /* \"#utility.yul\":956:979   */\n  sub\n    /* \"#utility.yul\":952:984   */\n  slt\n    /* \"#utility.yul\":949:1068   */\n  iszero\n  tag_27\n  jumpi\n    /* \"#utility.yul\":987:1066   */\n  tag_28\n  tag_8\n  jump\t// in\ntag_28:\n    /* \"#utility.yul\":949:1068   */\ntag_27:\n    /* \"#utility.yul\":1107:1108   */\n  0x00\n    /* \"#utility.yul\":1132:1196   */\n  tag_29\n    /* \"#utility.yul\":1188:1195   */\n  dup6\n    /* \"#utility.yul\":1179:1185   */\n  dup3\n    /* \"#utility.yul\":1168:1177   */\n  dup7\n    /* \"#utility.yul\":1164:1186   */\n  add\n    /* \"#utility.yul\":1132:1196   */\n  tag_13\n  jump\t// in\ntag_29:\n    /* \"#utility.yul\":1122:1196   */\n  swap3\n  pop\n    /* \"#utility.yul\":1078:1206   */\n  pop\n    /* \"#utility.yul\":1245:1247   */\n  0x20\n    /* \"#utility.yul\":1271:1335   */\n  tag_30\n    /* \"#utility.yul\":1327:1334   */\n  dup6\n    /* \"#utility.yul\":1318:1324   */\n  dup3\n    /* \"#utility.yul\":1307:1316   */\n  dup7\n    /* \"#utility.yul\":1303:1325   */\n  add\n    /* \"#utility.yul\":1271:1335   */\n  tag_13\n  jump\t// in\ntag_30:\n    /* \"#utility.yul\":1261:1335   */\n  swap2\n  pop\n    /* \"#utility.yul\":1216:1345   */\n  pop\n    /* \"#utility.yul\":845:1352   */\n  swap3\n  pop\n  swap3\n  swap1\n  pop\n  jump\t// out\n    /* \"contracts/3_Cross_transfer.sol\":399:4697  contract CrossTrans {... */\ntag_6:\n  dataSize(sub_0)\n  dup1\n  dataOffset(sub_0)\n  0x00\n  codecopy\n  0x00\n  return\nstop\n\nsub_0: assembly {\n        /* \"contracts/3_Cross_transfer.sol\":399:4697  contract CrossTrans {... */\n      mstore(0x40, 0x80)\n      callvalue\n      dup1\n      iszero\n      tag_1\n      jumpi\n      0x00\n      dup1\n      revert\n    tag_1:\n      pop\n      jumpi(tag_2, lt(calldatasize, 0x04))\n      shr(0xe0, calldataload(0x00))\n      dup1\n      0x925dcd9d\n      gt\n      tag_11\n      jumpi\n      dup1\n      0x925dcd9d\n      eq\n      tag_7\n      jumpi\n      dup1\n      0xe58ef8a8\n      eq\n      tag_8\n      jumpi\n      dup1\n      0xfa52c7d8\n      eq\n      tag_9\n      jumpi\n      dup1\n      0xfc0c546a\n      eq\n      tag_10\n      jumpi\n      jump(tag_2)\n    tag_11:\n      dup1\n      0x27e235e3\n      eq\n      tag_3\n      jumpi\n      dup1\n      0x3756f786\n      eq\n      tag_4\n      jumpi\n      dup1\n      0x4668a40c\n      eq\n      tag_5\n      jumpi\n      dup1\n      0x6a37e3fe\n      eq\n      tag_6\n      jumpi\n    tag_2:\n      0x00\n      dup1\n      revert\n        /* \"contracts/3_Cross_transfer.sol\":528:571  mapping(address => uint256) public balances */\n    tag_3:\n      tag_12\n      0x04\n      dup1\n      calldatasize\n      sub\n      dup2\n      add\n      swap1\n      tag_13\n      swap2\n      swap1\n      tag_14\n      jump\t// in\n    tag_13:\n      tag_15\n      jump\t// in\n    tag_12:\n      mload(0x40)\n      tag_16\n      swap2\n      swap1\n      tag_17\n      jump\t// in\n    tag_16:\n      mload(0x40)\n      dup1\n      swap2\n      sub\n      swap1\n      return\n        /* \"contracts/3_Cross_transfer.sol\":4242:4694  function CrossTransactionFail(address sendaddr, uint256 amount) public {... */\n    tag_4:\n      tag_18\n      0x04\n      dup1\n      calldatasize\n      sub\n      dup2\n      add\n      swap1\n      tag_19\n      swap2\n      swap1\n      tag_20\n      jump\t// in\n    tag_19:\n      tag_21\n      jump\t// in\n    tag_18:\n      stop\n        /* \"contracts/3_Cross_transfer.sol\":1704:2484  function test_StartCrossTrans(uint256 amount, address toaddr) public {... */\n    tag_5:\n      tag_22\n      0x04\n      dup1\n      calldatasize\n      sub\n      dup2\n      add\n      swap1\n      tag_23\n      swap2\n      swap1\n      tag_24\n      jump\t// in\n    tag_23:\n      tag_25\n      jump\t// in\n    tag_22:\n      stop\n        /* \"contracts/3_Cross_transfer.sol\":3576:4236  function CrossTransactionSuccess(address sendaddr, uint256 amount) public {... */\n    tag_6:\n      tag_26\n      0x04\n      dup1\n      calldatasize\n      sub\n      dup2\n      add\n      swap1\n      tag_27\n      swap2\n      swap1\n      tag_20\n      jump\t// in\n    tag_27:\n      tag_28\n      jump\t// in\n    tag_26:\n      stop\n        /* \"contracts/3_Cross_transfer.sol\":2490:3570  function StartCrossTrans(uint256 amount, address toaddr) public {... */\n    tag_7:\n      tag_29\n      0x04\n      dup1\n      calldatasize\n      sub\n      dup2\n      add\n      swap1\n      tag_30\n      swap2\n      swap1\n      tag_24\n      jump\t// in\n    tag_30:\n      tag_31\n      jump\t// in\n    tag_29:\n      stop\n        /* \"contracts/3_Cross_transfer.sol\":1544:1699  function executeTransfer(address from, address to, uint256 amount) public {... */\n    tag_8:\n      tag_32\n      0x04\n      dup1\n      calldatasize\n      sub\n      dup2\n      add\n      swap1\n      tag_33\n      swap2\n      swap1\n      tag_34\n      jump\t// in\n    tag_33:\n      tag_35\n      jump\t// in\n    tag_32:\n      stop\n        /* \"contracts/3_Cross_transfer.sol\":619:664  mapping(address => address) public validators */\n    tag_9:\n      tag_36\n      0x04\n      dup1\n      calldatasize\n      sub\n      dup2\n      add\n      swap1\n      tag_37\n      swap2\n      swap1\n      tag_14\n      jump\t// in\n    tag_37:\n      tag_38\n      jump\t// in\n    tag_36:\n      mload(0x40)\n      tag_39\n      swap2\n      swap1\n      tag_40\n      jump\t// in\n    tag_39:\n      mload(0x40)\n      dup1\n      swap2\n      sub\n      swap1\n      return\n        /* \"contracts/3_Cross_transfer.sol\":425:444  IERC20 public token */\n    tag_10:\n      tag_41\n      tag_42\n      jump\t// in\n    tag_41:\n      mload(0x40)\n      tag_43\n      swap2\n      swap1\n      tag_44\n      jump\t// in\n    tag_43:\n      mload(0x40)\n      dup1\n      swap2\n      sub\n      swap1\n      return\n        /* \"contracts/3_Cross_transfer.sol\":528:571  mapping(address => uint256) public balances */\n    tag_15:\n      mstore(0x20, 0x03)\n      dup1\n      0x00\n      mstore\n      keccak256(0x00, 0x40)\n      0x00\n      swap2\n      pop\n      swap1\n      pop\n      sload\n      dup2\n      jump\t// out\n        /* \"contracts/3_Cross_transfer.sol\":4242:4694  function CrossTransactionFail(address sendaddr, uint256 amount) public {... */\n    tag_21:\n        /* \"contracts/3_Cross_transfer.sol\":4355:4365  msg.sender */\n      caller\n        /* \"contracts/3_Cross_transfer.sol\":4331:4365  validators[sendaddr] == msg.sender */\n      0xffffffffffffffffffffffffffffffffffffffff\n      and\n        /* \"contracts/3_Cross_transfer.sol\":4331:4341  validators */\n      0x04\n        /* \"contracts/3_Cross_transfer.sol\":4331:4351  validators[sendaddr] */\n      0x00\n        /* \"contracts/3_Cross_transfer.sol\":4342:4350  sendaddr */\n      dup5\n        /* \"contracts/3_Cross_transfer.sol\":4331:4351  validators[sendaddr] */\n      0xffffffffffffffffffffffffffffffffffffffff\n      and\n      0xffffffffffffffffffffffffffffffffffffffff\n      and\n      dup2\n      mstore\n      0x20\n      add\n      swap1\n      dup2\n      mstore\n      0x20\n      add\n      0x00\n      keccak256\n      0x00\n      swap1\n      sload\n      swap1\n      0x0100\n      exp\n      swap1\n      div\n      0xffffffffffffffffffffffffffffffffffffffff\n      and\n        /* \"contracts/3_Cross_transfer.sol\":4331:4365  validators[sendaddr] == msg.sender */\n      0xffffffffffffffffffffffffffffffffffffffff\n      and\n      eq\n        /* \"contracts/3_Cross_transfer.sol\":4323:4366  require(validators[sendaddr] == msg.sender) */\n      tag_46\n      jumpi\n      0x00\n      dup1\n      revert\n    tag_46:\n        /* \"contracts/3_Cross_transfer.sol\":4408:4414  amount */\n      dup1\n        /* \"contracts/3_Cross_transfer.sol\":4384:4392  balances */\n      0x03\n        /* \"contracts/3_Cross_transfer.sol\":4384:4404  balances[msg.sender] */\n      0x00\n        /* \"contracts/3_Cross_transfer.sol\":4393:4403  msg.sender */\n      caller\n        /* \"contracts/3_Cross_transfer.sol\":4384:4404  balances[msg.sender] */\n      0xffffffffffffffffffffffffffffffffffffffff\n      and\n      0xffffffffffffffffffffffffffffffffffffffff\n      and\n      dup2\n      mstore\n      0x20\n      add\n      swap1\n      dup2\n      mstore\n      0x20\n      add\n      0x00\n      keccak256\n      sload\n        /* \"contracts/3_Cross_transfer.sol\":4384:4414  balances[msg.sender] >= amount */\n      lt\n      iszero\n        /* \"contracts/3_Cross_transfer.sol\":4376:4439  require(balances[msg.sender] >= amount, \"Insufficient balance\") */\n      tag_47\n      jumpi\n      mload(0x40)\n      0x08c379a000000000000000000000000000000000000000000000000000000000\n      dup2\n      mstore\n      0x04\n      add\n      tag_48\n      swap1\n      tag_49\n      jump\t// in\n    tag_48:\n      mload(0x40)\n      dup1\n      swap2\n      sub\n      swap1\n      revert\n    tag_47:\n        /* \"contracts/3_Cross_transfer.sol\":4473:4479  amount */\n      dup1\n        /* \"contracts/3_Cross_transfer.sol\":4449:4457  balances */\n      0x03\n        /* \"contracts/3_Cross_transfer.sol\":4449:4469  balances[msg.sender] */\n      0x00\n        /* \"contracts/3_Cross_transfer.sol\":4458:4468  msg.sender */\n      caller\n        /* \"contracts/3_Cross_transfer.sol\":4449:4469  balances[msg.sender] */\n      0xffffffffffffffffffffffffffffffffffffffff\n      and\n      0xffffffffffffffffffffffffffffffffffffffff\n      and\n      dup2\n      mstore\n      0x20\n      add\n      swap1\n      dup2\n      mstore\n      0x20\n      add\n      0x00\n      keccak256\n      0x00\n        /* \"contracts/3_Cross_transfer.sol\":4449:4479  balances[msg.sender] -= amount */\n      dup3\n      dup3\n      sload\n      tag_50\n      swap2\n      swap1\n      tag_51\n      jump\t// in\n    tag_50:\n      swap3\n      pop\n      pop\n      dup2\n      swap1\n      sstore\n      pop\n        /* \"contracts/3_Cross_transfer.sol\":4489:4500  bool status */\n      0x00\n        /* \"contracts/3_Cross_transfer.sol\":4503:4508  token */\n      dup1\n      0x00\n      swap1\n      sload\n      swap1\n      0x0100\n      exp\n      swap1\n      div\n      0xffffffffffffffffffffffffffffffffffffffff\n      and\n        /* \"contracts/3_Cross_transfer.sol\":4503:4521  token.transferFrom */\n      0xffffffffffffffffffffffffffffffffffffffff\n      and\n      0x23b872dd\n        /* \"contracts/3_Cross_transfer.sol\":4522:4532  msg.sender */\n      caller\n        /* \"contracts/3_Cross_transfer.sol\":4534:4542  sendaddr */\n      dup6\n        /* \"contracts/3_Cross_transfer.sol\":4544:4550  amount */\n      dup6\n        /* \"contracts/3_Cross_transfer.sol\":4503:4551  token.transferFrom(msg.sender, sendaddr, amount) */\n      mload(0x40)\n      dup5\n      0xffffffff\n      and\n      0xe0\n      shl\n      dup2\n      mstore\n      0x04\n      add\n      tag_52\n      swap4\n      swap3\n      swap2\n      swap1\n      tag_53\n      jump\t// in\n    tag_52:\n      0x20\n      mload(0x40)\n      dup1\n      dup4\n      sub\n      dup2\n      0x00\n      dup8\n      gas\n      call\n      iszero\n      dup1\n      iszero\n      tag_55\n      jumpi\n      returndatasize\n      0x00\n      dup1\n      returndatacopy\n      revert(0x00, returndatasize)\n    tag_55:\n      pop\n      pop\n      pop\n      pop\n      mload(0x40)\n      returndatasize\n      not(0x1f)\n      0x1f\n      dup3\n      add\n      and\n      dup3\n      add\n      dup1\n      0x40\n      mstore\n      pop\n      dup2\n      add\n      swap1\n      tag_56\n      swap2\n      swap1\n      tag_57\n      jump\t// in\n    tag_56:\n        /* \"contracts/3_Cross_transfer.sol\":4489:4551  bool status = token.transferFrom(msg.sender, sendaddr, amount) */\n      swap1\n      pop\n        /* \"contracts/3_Cross_transfer.sol\":4569:4575  status */\n      dup1\n        /* \"contracts/3_Cross_transfer.sol\":4561:4595  require(status, \"Transfer failed\") */\n      tag_58\n      jumpi\n      mload(0x40)\n      0x08c379a000000000000000000000000000000000000000000000000000000000\n      dup2\n      mstore\n      0x04\n      add\n      tag_59\n      swap1\n      tag_60\n      jump\t// in\n    tag_59:\n      mload(0x40)\n      dup1\n      swap2\n      sub\n      swap1\n      revert\n    tag_58:\n        /* \"contracts/3_Cross_transfer.sol\":4660:4670  msg.sender */\n      caller\n        /* \"contracts/3_Cross_transfer.sol\":4650:4687  CrossFail(msg.sender, amount, status) */\n      0xffffffffffffffffffffffffffffffffffffffff\n      and\n      0xbef9b5de8f3d26f5404dfa991d716facb06b43a40c59c2972953eaca76f82619\n        /* \"contracts/3_Cross_transfer.sol\":4672:4678  amount */\n      dup4\n        /* \"contracts/3_Cross_transfer.sol\":4680:4686  status */\n      dup4\n        /* \"contracts/3_Cross_transfer.sol\":4650:4687  CrossFail(msg.sender, amount, status) */\n      mload(0x40)\n      tag_61\n      swap3\n      swap2\n      swap1\n      tag_62\n      jump\t// in\n    tag_61:\n      mload(0x40)\n      dup1\n      swap2\n      sub\n      swap1\n      log2\n        /* \"contracts/3_Cross_transfer.sol\":4313:4694  {... */\n      pop\n        /* \"contracts/3_Cross_transfer.sol\":4242:4694  function CrossTransactionFail(address sendaddr, uint256 amount) public {... */\n      pop\n      pop\n      jump\t// out\n        /* \"contracts/3_Cross_transfer.sol\":1704:2484  function test_StartCrossTrans(uint256 amount, address toaddr) public {... */\n    tag_25:\n        /* \"contracts/3_Cross_transfer.sol\":1999:2018  address validatorIP */\n      0x00\n        /* \"contracts/3_Cross_transfer.sol\":2021:2063  0x28E2B18A77C9968A74BAaC3cAEC4FFCFe195Ac62 */\n      0x28e2b18a77c9968a74baac3caec4ffcfe195ac62\n        /* \"contracts/3_Cross_transfer.sol\":1999:2063  address validatorIP = 0x28E2B18A77C9968A74BAaC3cAEC4FFCFe195Ac62 */\n      swap1\n      pop\n        /* \"contracts/3_Cross_transfer.sol\":2171:2176  token */\n      0x00\n      dup1\n      sload\n      swap1\n      0x0100\n      exp\n      swap1\n      div\n      0xffffffffffffffffffffffffffffffffffffffff\n      and\n        /* \"contracts/3_Cross_transfer.sol\":2171:2189  token.transferFrom */\n      0xffffffffffffffffffffffffffffffffffffffff\n      and\n      0x23b872dd\n        /* \"contracts/3_Cross_transfer.sol\":2190:2200  msg.sender */\n      caller\n        /* \"contracts/3_Cross_transfer.sol\":2202:2213  validatorIP */\n      dup4\n        /* \"contracts/3_Cross_transfer.sol\":2215:2221  amount */\n      dup7\n        /* \"contracts/3_Cross_transfer.sol\":2171:2222  token.transferFrom(msg.sender, validatorIP, amount) */\n      mload(0x40)\n      dup5\n      0xffffffff\n      and\n      0xe0\n      shl\n      dup2\n      mstore\n      0x04\n      add\n      tag_64\n      swap4\n      swap3\n      swap2\n      swap1\n      tag_53\n      jump\t// in\n    tag_64:\n      0x20\n      mload(0x40)\n      dup1\n      dup4\n      sub\n      dup2\n      0x00\n      dup8\n      gas\n      call\n      iszero\n      dup1\n      iszero\n      tag_66\n      jumpi\n      returndatasize\n      0x00\n      dup1\n      returndatacopy\n      revert(0x00, returndatasize)\n    tag_66:\n      pop\n      pop\n      pop\n      pop\n      mload(0x40)\n      returndatasize\n      not(0x1f)\n      0x1f\n      dup3\n      add\n      and\n      dup3\n      add\n      dup1\n      0x40\n      mstore\n      pop\n      dup2\n      add\n      swap1\n      tag_67\n      swap2\n      swap1\n      tag_57\n      jump\t// in\n    tag_67:\n        /* \"contracts/3_Cross_transfer.sol\":2163:2242  require(token.transferFrom(msg.sender, validatorIP, amount), \"Transfer failed\") */\n      tag_68\n      jumpi\n      mload(0x40)\n      0x08c379a000000000000000000000000000000000000000000000000000000000\n      dup2\n      mstore\n      0x04\n      add\n      tag_69\n      swap1\n      tag_60\n      jump\t// in\n    tag_69:\n      mload(0x40)\n      dup1\n      swap2\n      sub\n      swap1\n      revert\n    tag_68:\n        /* \"contracts/3_Cross_transfer.sol\":2307:2313  amount */\n      dup3\n        /* \"contracts/3_Cross_transfer.sol\":2283:2291  balances */\n      0x03\n        /* \"contracts/3_Cross_transfer.sol\":2283:2303  balances[msg.sender] */\n      0x00\n        /* \"contracts/3_Cross_transfer.sol\":2292:2302  msg.sender */\n      caller\n        /* \"contracts/3_Cross_transfer.sol\":2283:2303  balances[msg.sender] */\n      0xffffffffffffffffffffffffffffffffffffffff\n      and\n      0xffffffffffffffffffffffffffffffffffffffff\n      and\n      dup2\n      mstore\n      0x20\n      add\n      swap1\n      dup2\n      mstore\n      0x20\n      add\n      0x00\n      keccak256\n      0x00\n        /* \"contracts/3_Cross_transfer.sol\":2283:2313  balances[msg.sender] += amount */\n      dup3\n      dup3\n      sload\n      tag_70\n      swap2\n      swap1\n      tag_71\n      jump\t// in\n    tag_70:\n      swap3\n      pop\n      pop\n      dup2\n      swap1\n      sstore\n      pop\n        /* \"contracts/3_Cross_transfer.sol\":2348:2359  validatorIP */\n      dup1\n        /* \"contracts/3_Cross_transfer.sol\":2323:2333  validators */\n      0x04\n        /* \"contracts/3_Cross_transfer.sol\":2323:2345  validators[msg.sender] */\n      0x00\n        /* \"contracts/3_Cross_transfer.sol\":2334:2344  msg.sender */\n      caller\n        /* \"contracts/3_Cross_transfer.sol\":2323:2345  validators[msg.sender] */\n      0xffffffffffffffffffffffffffffffffffffffff\n      and\n      0xffffffffffffffffffffffffffffffffffffffff\n      and\n      dup2\n      mstore\n      0x20\n      add\n      swap1\n      dup2\n      mstore\n      0x20\n      add\n      0x00\n      keccak256\n      0x00\n        /* \"contracts/3_Cross_transfer.sol\":2323:2359  validators[msg.sender] = validatorIP */\n      0x0100\n      exp\n      dup2\n      sload\n      dup2\n      0xffffffffffffffffffffffffffffffffffffffff\n      mul\n      not\n      and\n      swap1\n      dup4\n      0xffffffffffffffffffffffffffffffffffffffff\n      and\n      mul\n      or\n      swap1\n      sstore\n      pop\n        /* \"contracts/3_Cross_transfer.sol\":2431:2441  msg.sender */\n      caller\n        /* \"contracts/3_Cross_transfer.sol\":2413:2477  test_TokensStaked(msg.sender, toaddr, validatorIP, amount, true) */\n      0xffffffffffffffffffffffffffffffffffffffff\n      and\n      0x5ca2aba0cecf0783a090e6862bb44f029273ab9274b1b8763de309732621e2a1\n        /* \"contracts/3_Cross_transfer.sol\":2443:2449  toaddr */\n      dup4\n        /* \"contracts/3_Cross_transfer.sol\":2451:2462  validatorIP */\n      dup4\n        /* \"contracts/3_Cross_transfer.sol\":2464:2470  amount */\n      dup7\n        /* \"contracts/3_Cross_transfer.sol\":2472:2476  true */\n      0x01\n        /* \"contracts/3_Cross_transfer.sol\":2413:2477  test_TokensStaked(msg.sender, toaddr, validatorIP, amount, true) */\n      mload(0x40)\n      tag_72\n      swap5\n      swap4\n      swap3\n      swap2\n      swap1\n      tag_73\n      jump\t// in\n    tag_72:\n      mload(0x40)\n      dup1\n      swap2\n      sub\n      swap1\n      log2\n        /* \"contracts/3_Cross_transfer.sol\":1773:2484  {... */\n      pop\n        /* \"contracts/3_Cross_transfer.sol\":1704:2484  function test_StartCrossTrans(uint256 amount, address toaddr) public {... */\n      pop\n      pop\n      jump\t// out\n        /* \"contracts/3_Cross_transfer.sol\":3576:4236  function CrossTransactionSuccess(address sendaddr, uint256 amount) public {... */\n    tag_28:\n        /* \"contracts/3_Cross_transfer.sol\":3692:3702  msg.sender */\n      caller\n        /* \"contracts/3_Cross_transfer.sol\":3668:3702  validators[sendaddr] == msg.sender */\n      0xffffffffffffffffffffffffffffffffffffffff\n      and\n        /* \"contracts/3_Cross_transfer.sol\":3668:3678  validators */\n      0x04\n        /* \"contracts/3_Cross_transfer.sol\":3668:3688  validators[sendaddr] */\n      0x00\n        /* \"contracts/3_Cross_transfer.sol\":3679:3687  sendaddr */\n      dup5\n        /* \"contracts/3_Cross_transfer.sol\":3668:3688  validators[sendaddr] */\n      0xffffffffffffffffffffffffffffffffffffffff\n      and\n      0xffffffffffffffffffffffffffffffffffffffff\n      and\n      dup2\n      mstore\n      0x20\n      add\n      swap1\n      dup2\n      mstore\n      0x20\n      add\n      0x00\n      keccak256\n      0x00\n      swap1\n      sload\n      swap1\n      0x0100\n      exp\n      swap1\n      div\n      0xffffffffffffffffffffffffffffffffffffffff\n      and\n        /* \"contracts/3_Cross_transfer.sol\":3668:3702  validators[sendaddr] == msg.sender */\n      0xffffffffffffffffffffffffffffffffffffffff\n      and\n      eq\n        /* \"contracts/3_Cross_transfer.sol\":3660:3760  require(validators[sendaddr] == msg.sender, \"Only the designated validator can perform this action\") */\n      tag_75\n      jumpi\n      mload(0x40)\n      0x08c379a000000000000000000000000000000000000000000000000000000000\n      dup2\n      mstore\n      0x04\n      add\n      tag_76\n      swap1\n      tag_77\n      jump\t// in\n    tag_76:\n      mload(0x40)\n      dup1\n      swap2\n      sub\n      swap1\n      revert\n    tag_75:\n        /* \"contracts/3_Cross_transfer.sol\":3858:3864  amount */\n      dup1\n        /* \"contracts/3_Cross_transfer.sol\":3836:3844  balances */\n      0x03\n        /* \"contracts/3_Cross_transfer.sol\":3836:3854  balances[sendaddr] */\n      0x00\n        /* \"contracts/3_Cross_transfer.sol\":3845:3853  sendaddr */\n      dup5\n        /* \"contracts/3_Cross_transfer.sol\":3836:3854  balances[sendaddr] */\n      0xffffffffffffffffffffffffffffffffffffffff\n      and\n      0xffffffffffffffffffffffffffffffffffffffff\n      and\n      dup2\n      mstore\n      0x20\n      add\n      swap1\n      dup2\n      mstore\n      0x20\n      add\n      0x00\n      keccak256\n      sload\n        /* \"contracts/3_Cross_transfer.sol\":3836:3864  balances[sendaddr] >= amount */\n      lt\n      iszero\n        /* \"contracts/3_Cross_transfer.sol\":3828:3889  require(balances[sendaddr] >= amount, \"Insufficient balance\") */\n      tag_78\n      jumpi\n      mload(0x40)\n      0x08c379a000000000000000000000000000000000000000000000000000000000\n      dup2\n      mstore\n      0x04\n      add\n      tag_79\n      swap1\n      tag_49\n      jump\t// in\n    tag_79:\n      mload(0x40)\n      dup1\n      swap2\n      sub\n      swap1\n      revert\n    tag_78:\n        /* \"contracts/3_Cross_transfer.sol\":3963:3971  burnaddr */\n      0x02\n      0x00\n      swap1\n      sload\n      swap1\n      0x0100\n      exp\n      swap1\n      div\n      0xffffffffffffffffffffffffffffffffffffffff\n      and\n        /* \"contracts/3_Cross_transfer.sol\":3941:3982  ERC20Burnable(address(burnaddr)).burnFrom */\n      0xffffffffffffffffffffffffffffffffffffffff\n      and\n      0x79cc6790\n        /* \"contracts/3_Cross_transfer.sol\":3983:3993  msg.sender */\n      caller\n        /* \"contracts/3_Cross_transfer.sol\":3994:4000  amount */\n      dup4\n        /* \"contracts/3_Cross_transfer.sol\":3941:4001  ERC20Burnable(address(burnaddr)).burnFrom(msg.sender,amount) */\n      mload(0x40)\n      dup4\n      0xffffffff\n      and\n      0xe0\n      shl\n      dup2\n      mstore\n      0x04\n      add\n      tag_80\n      swap3\n      swap2\n      swap1\n      tag_81\n      jump\t// in\n    tag_80:\n      0x00\n      mload(0x40)\n      dup1\n      dup4\n      sub\n      dup2\n      0x00\n      dup8\n      dup1\n      extcodesize\n      iszero\n      dup1\n      iszero\n      tag_82\n      jumpi\n      0x00\n      dup1\n      revert\n    tag_82:\n      pop\n      gas\n      call\n      iszero\n      dup1\n      iszero\n      tag_84\n      jumpi\n      returndatasize\n      0x00\n      dup1\n      returndatacopy\n      revert(0x00, returndatasize)\n    tag_84:\n      pop\n      pop\n      pop\n      pop\n        /* \"contracts/3_Cross_transfer.sol\":4133:4139  amount */\n      dup1\n        /* \"contracts/3_Cross_transfer.sol\":4111:4119  balances */\n      0x03\n        /* \"contracts/3_Cross_transfer.sol\":4111:4129  balances[sendaddr] */\n      0x00\n        /* \"contracts/3_Cross_transfer.sol\":4120:4128  sendaddr */\n      dup5\n        /* \"contracts/3_Cross_transfer.sol\":4111:4129  balances[sendaddr] */\n      0xffffffffffffffffffffffffffffffffffffffff\n      and\n      0xffffffffffffffffffffffffffffffffffffffff\n      and\n      dup2\n      mstore\n      0x20\n      add\n      swap1\n      dup2\n      mstore\n      0x20\n      add\n      0x00\n      keccak256\n      0x00\n        /* \"contracts/3_Cross_transfer.sol\":4111:4139  balances[sendaddr] -= amount */\n      dup3\n      dup3\n      sload\n      tag_85\n      swap2\n      swap1\n      tag_51\n      jump\t// in\n    tag_85:\n      swap3\n      pop\n      pop\n      dup2\n      swap1\n      sstore\n      pop\n        /* \"contracts/3_Cross_transfer.sol\":4206:4214  sendaddr */\n      dup2\n        /* \"contracts/3_Cross_transfer.sol\":4193:4229  CrossSuccess(sendaddr, amount, true) */\n      0xffffffffffffffffffffffffffffffffffffffff\n      and\n      0x2a62a476b1f2333c3e337e119e3924e874c5d2d46e4ba97594d2635f3bbee7fd\n        /* \"contracts/3_Cross_transfer.sol\":4216:4222  amount */\n      dup3\n        /* \"contracts/3_Cross_transfer.sol\":4224:4228  true */\n      0x01\n        /* \"contracts/3_Cross_transfer.sol\":4193:4229  CrossSuccess(sendaddr, amount, true) */\n      mload(0x40)\n      tag_86\n      swap3\n      swap2\n      swap1\n      tag_62\n      jump\t// in\n    tag_86:\n      mload(0x40)\n      dup1\n      swap2\n      sub\n      swap1\n      log2\n        /* \"contracts/3_Cross_transfer.sol\":3576:4236  function CrossTransactionSuccess(address sendaddr, uint256 amount) public {... */\n      pop\n      pop\n      jump\t// out\n        /* \"contracts/3_Cross_transfer.sol\":2490:3570  function StartCrossTrans(uint256 amount, address toaddr) public {... */\n    tag_31:\n        /* \"contracts/3_Cross_transfer.sol\":2606:2632  IContract_router contractA */\n      0x00\n        /* \"contracts/3_Cross_transfer.sol\":2652:2665  routerAddress */\n      0x01\n      0x00\n      swap1\n      sload\n      swap1\n      0x0100\n      exp\n      swap1\n      div\n      0xffffffffffffffffffffffffffffffffffffffff\n      and\n        /* \"contracts/3_Cross_transfer.sol\":2606:2666  IContract_router contractA = IContract_router(routerAddress) */\n      swap1\n      pop\n        /* \"contracts/3_Cross_transfer.sol\":2676:2703  address[4] memory randomIPs */\n      0x00\n        /* \"contracts/3_Cross_transfer.sol\":2706:2715  contractA */\n      dup2\n        /* \"contracts/3_Cross_transfer.sol\":2706:2733  contractA.getRandomActiveIP */\n      0xffffffffffffffffffffffffffffffffffffffff\n      and\n      0x4620f3d5\n        /* \"contracts/3_Cross_transfer.sol\":2706:2735  contractA.getRandomActiveIP() */\n      mload(0x40)\n      dup2\n      0xffffffff\n      and\n      0xe0\n      shl\n      dup2\n      mstore\n      0x04\n      add\n      0x80\n      mload(0x40)\n      dup1\n      dup4\n      sub\n      dup2\n      dup7\n      gas\n      staticcall\n      iszero\n      dup1\n      iszero\n      tag_89\n      jumpi\n      returndatasize\n      0x00\n      dup1\n      returndatacopy\n      revert(0x00, returndatasize)\n    tag_89:\n      pop\n      pop\n      pop\n      pop\n      mload(0x40)\n      returndatasize\n      not(0x1f)\n      0x1f\n      dup3\n      add\n      and\n      dup3\n      add\n      dup1\n      0x40\n      mstore\n      pop\n      dup2\n      add\n      swap1\n      tag_90\n      swap2\n      swap1\n      tag_91\n      jump\t// in\n    tag_90:\n        /* \"contracts/3_Cross_transfer.sol\":2676:2735  address[4] memory randomIPs = contractA.getRandomActiveIP() */\n      swap1\n      pop\n        /* \"contracts/3_Cross_transfer.sol\":2745:2764  address validatorIP */\n      0x00\n        /* \"contracts/3_Cross_transfer.sol\":2767:2776  randomIPs */\n      dup2\n        /* \"contracts/3_Cross_transfer.sol\":2777:2778  1 */\n      0x01\n        /* \"contracts/3_Cross_transfer.sol\":2767:2779  randomIPs[1] */\n      0x04\n      dup2\n      lt\n      tag_92\n      jumpi\n      tag_93\n      tag_94\n      jump\t// in\n    tag_93:\n    tag_92:\n      0x20\n      mul\n      add\n      mload\n        /* \"contracts/3_Cross_transfer.sol\":2745:2779  address validatorIP = randomIPs[1] */\n      swap1\n      pop\n        /* \"contracts/3_Cross_transfer.sol\":3243:3254  bool status */\n      0x00\n        /* \"contracts/3_Cross_transfer.sol\":3257:3262  token */\n      dup1\n      0x00\n      swap1\n      sload\n      swap1\n      0x0100\n      exp\n      swap1\n      div\n      0xffffffffffffffffffffffffffffffffffffffff\n      and\n        /* \"contracts/3_Cross_transfer.sol\":3257:3275  token.transferFrom */\n      0xffffffffffffffffffffffffffffffffffffffff\n      and\n      0x23b872dd\n        /* \"contracts/3_Cross_transfer.sol\":3276:3286  msg.sender */\n      caller\n        /* \"contracts/3_Cross_transfer.sol\":3295:3299  this */\n      address\n        /* \"contracts/3_Cross_transfer.sol\":3302:3308  amount */\n      dup10\n        /* \"contracts/3_Cross_transfer.sol\":3257:3309  token.transferFrom(msg.sender,address(this), amount) */\n      mload(0x40)\n      dup5\n      0xffffffff\n      and\n      0xe0\n      shl\n      dup2\n      mstore\n      0x04\n      add\n      tag_95\n      swap4\n      swap3\n      swap2\n      swap1\n      tag_53\n      jump\t// in\n    tag_95:\n      0x20\n      mload(0x40)\n      dup1\n      dup4\n      sub\n      dup2\n      0x00\n      dup8\n      gas\n      call\n      iszero\n      dup1\n      iszero\n      tag_97\n      jumpi\n      returndatasize\n      0x00\n      dup1\n      returndatacopy\n      revert(0x00, returndatasize)\n    tag_97:\n      pop\n      pop\n      pop\n      pop\n      mload(0x40)\n      returndatasize\n      not(0x1f)\n      0x1f\n      dup3\n      add\n      and\n      dup3\n      add\n      dup1\n      0x40\n      mstore\n      pop\n      dup2\n      add\n      swap1\n      tag_98\n      swap2\n      swap1\n      tag_57\n      jump\t// in\n    tag_98:\n        /* \"contracts/3_Cross_transfer.sol\":3243:3309  bool status = token.transferFrom(msg.sender,address(this), amount) */\n      swap1\n      pop\n        /* \"contracts/3_Cross_transfer.sol\":3327:3333  status */\n      dup1\n        /* \"contracts/3_Cross_transfer.sol\":3319:3353  require(status, \"Transfer failed\") */\n      tag_99\n      jumpi\n      mload(0x40)\n      0x08c379a000000000000000000000000000000000000000000000000000000000\n      dup2\n      mstore\n      0x04\n      add\n      tag_100\n      swap1\n      tag_60\n      jump\t// in\n    tag_100:\n      mload(0x40)\n      dup1\n      swap2\n      sub\n      swap1\n      revert\n    tag_99:\n        /* \"contracts/3_Cross_transfer.sol\":3387:3393  amount */\n      dup6\n        /* \"contracts/3_Cross_transfer.sol\":3363:3371  balances */\n      0x03\n        /* \"contracts/3_Cross_transfer.sol\":3363:3383  balances[msg.sender] */\n      0x00\n        /* \"contracts/3_Cross_transfer.sol\":3372:3382  msg.sender */\n      caller\n        /* \"contracts/3_Cross_transfer.sol\":3363:3383  balances[msg.sender] */\n      0xffffffffffffffffffffffffffffffffffffffff\n      and\n      0xffffffffffffffffffffffffffffffffffffffff\n      and\n      dup2\n      mstore\n      0x20\n      add\n      swap1\n      dup2\n      mstore\n      0x20\n      add\n      0x00\n      keccak256\n      0x00\n        /* \"contracts/3_Cross_transfer.sol\":3363:3393  balances[msg.sender] += amount */\n      dup3\n      dup3\n      sload\n      tag_101\n      swap2\n      swap1\n      tag_71\n      jump\t// in\n    tag_101:\n      swap3\n      pop\n      pop\n      dup2\n      swap1\n      sstore\n      pop\n        /* \"contracts/3_Cross_transfer.sol\":3427:3438  validatorIP */\n      dup2\n        /* \"contracts/3_Cross_transfer.sol\":3403:3413  validators */\n      0x04\n        /* \"contracts/3_Cross_transfer.sol\":3403:3425  validators[msg.sender] */\n      0x00\n        /* \"contracts/3_Cross_transfer.sol\":3414:3424  msg.sender */\n      caller\n        /* \"contracts/3_Cross_transfer.sol\":3403:3425  validators[msg.sender] */\n      0xffffffffffffffffffffffffffffffffffffffff\n      and\n      0xffffffffffffffffffffffffffffffffffffffff\n      and\n      dup2\n      mstore\n      0x20\n      add\n      swap1\n      dup2\n      mstore\n      0x20\n      add\n      0x00\n      keccak256\n      0x00\n        /* \"contracts/3_Cross_transfer.sol\":3403:3438  validators[msg.sender] =validatorIP */\n      0x0100\n      exp\n      dup2\n      sload\n      dup2\n      0xffffffffffffffffffffffffffffffffffffffff\n      mul\n      not\n      and\n      swap1\n      dup4\n      0xffffffffffffffffffffffffffffffffffffffff\n      and\n      mul\n      or\n      swap1\n      sstore\n      pop\n        /* \"contracts/3_Cross_transfer.sol\":3504:3514  msg.sender */\n      caller\n        /* \"contracts/3_Cross_transfer.sol\":3491:3563  TokensStaked(msg.sender, toaddr, validatorIP, randomIPs, amount, status) */\n      0xffffffffffffffffffffffffffffffffffffffff\n      and\n      0x6ed60208bd8249a7558dbe8070c8a4fec80c48bcc0606e7b88f916a601e5c844\n        /* \"contracts/3_Cross_transfer.sol\":3516:3522  toaddr */\n      dup7\n        /* \"contracts/3_Cross_transfer.sol\":3524:3535  validatorIP */\n      dup5\n        /* \"contracts/3_Cross_transfer.sol\":3537:3546  randomIPs */\n      dup7\n        /* \"contracts/3_Cross_transfer.sol\":3548:3554  amount */\n      dup11\n        /* \"contracts/3_Cross_transfer.sol\":3556:3562  status */\n      dup7\n        /* \"contracts/3_Cross_transfer.sol\":3491:3563  TokensStaked(msg.sender, toaddr, validatorIP, randomIPs, amount, status) */\n      mload(0x40)\n      tag_102\n      swap6\n      swap5\n      swap4\n      swap3\n      swap2\n      swap1\n      tag_103\n      jump\t// in\n    tag_102:\n      mload(0x40)\n      dup1\n      swap2\n      sub\n      swap1\n      log2\n        /* \"contracts/3_Cross_transfer.sol\":2554:3570  {... */\n      pop\n      pop\n      pop\n      pop\n        /* \"contracts/3_Cross_transfer.sol\":2490:3570  function StartCrossTrans(uint256 amount, address toaddr) public {... */\n      pop\n      pop\n      jump\t// out\n        /* \"contracts/3_Cross_transfer.sol\":1544:1699  function executeTransfer(address from, address to, uint256 amount) public {... */\n    tag_35:\n        /* \"contracts/3_Cross_transfer.sol\":1636:1641  token */\n      0x00\n      dup1\n      sload\n      swap1\n      0x0100\n      exp\n      swap1\n      div\n      0xffffffffffffffffffffffffffffffffffffffff\n      and\n        /* \"contracts/3_Cross_transfer.sol\":1636:1654  token.transferFrom */\n      0xffffffffffffffffffffffffffffffffffffffff\n      and\n      0x23b872dd\n        /* \"contracts/3_Cross_transfer.sol\":1655:1659  from */\n      dup5\n        /* \"contracts/3_Cross_transfer.sol\":1661:1663  to */\n      dup5\n        /* \"contracts/3_Cross_transfer.sol\":1665:1671  amount */\n      dup5\n        /* \"contracts/3_Cross_transfer.sol\":1636:1672  token.transferFrom(from, to, amount) */\n      mload(0x40)\n      dup5\n      0xffffffff\n      and\n      0xe0\n      shl\n      dup2\n      mstore\n      0x04\n      add\n      tag_105\n      swap4\n      swap3\n      swap2\n      swap1\n      tag_53\n      jump\t// in\n    tag_105:\n      0x20\n      mload(0x40)\n      dup1\n      dup4\n      sub\n      dup2\n      0x00\n      dup8\n      gas\n      call\n      iszero\n      dup1\n      iszero\n      tag_107\n      jumpi\n      returndatasize\n      0x00\n      dup1\n      returndatacopy\n      revert(0x00, returndatasize)\n    tag_107:\n      pop\n      pop\n      pop\n      pop\n      mload(0x40)\n      returndatasize\n      not(0x1f)\n      0x1f\n      dup3\n      add\n      and\n      dup3\n      add\n      dup1\n      0x40\n      mstore\n      pop\n      dup2\n      add\n      swap1\n      tag_108\n      swap2\n      swap1\n      tag_57\n      jump\t// in\n    tag_108:\n        /* \"contracts/3_Cross_transfer.sol\":1628:1692  require(token.transferFrom(from, to, amount), \"Transfer failed\") */\n      tag_109\n      jumpi\n      mload(0x40)\n      0x08c379a000000000000000000000000000000000000000000000000000000000\n      dup2\n      mstore\n      0x04\n      add\n      tag_110\n      swap1\n      tag_60\n      jump\t// in\n    tag_110:\n      mload(0x40)\n      dup1\n      swap2\n      sub\n      swap1\n      revert\n    tag_109:\n        /* \"contracts/3_Cross_transfer.sol\":1544:1699  function executeTransfer(address from, address to, uint256 amount) public {... */\n      pop\n      pop\n      pop\n      jump\t// out\n        /* \"contracts/3_Cross_transfer.sol\":619:664  mapping(address => address) public validators */\n    tag_38:\n      mstore(0x20, 0x04)\n      dup1\n      0x00\n      mstore\n      keccak256(0x00, 0x40)\n      0x00\n      swap2\n      pop\n      sload\n      swap1\n      0x0100\n      exp\n      swap1\n      div\n      0xffffffffffffffffffffffffffffffffffffffff\n      and\n      dup2\n      jump\t// out\n        /* \"contracts/3_Cross_transfer.sol\":425:444  IERC20 public token */\n    tag_42:\n      0x00\n      dup1\n      sload\n      swap1\n      0x0100\n      exp\n      swap1\n      div\n      0xffffffffffffffffffffffffffffffffffffffff\n      and\n      dup2\n      jump\t// out\n        /* \"#utility.yul\":7:82   */\n    tag_111:\n        /* \"#utility.yul\":40:46   */\n      0x00\n        /* \"#utility.yul\":73:75   */\n      0x40\n        /* \"#utility.yul\":67:76   */\n      mload\n        /* \"#utility.yul\":57:76   */\n      swap1\n      pop\n        /* \"#utility.yul\":7:82   */\n      swap1\n      jump\t// out\n        /* \"#utility.yul\":88:205   */\n    tag_112:\n        /* \"#utility.yul\":197:198   */\n      0x00\n        /* \"#utility.yul\":194:195   */\n      dup1\n        /* \"#utility.yul\":187:199   */\n      revert\n        /* \"#utility.yul\":334:460   */\n    tag_114:\n        /* \"#utility.yul\":371:378   */\n      0x00\n        /* \"#utility.yul\":411:453   */\n      0xffffffffffffffffffffffffffffffffffffffff\n        /* \"#utility.yul\":404:409   */\n      dup3\n        /* \"#utility.yul\":400:454   */\n      and\n        /* \"#utility.yul\":389:454   */\n      swap1\n      pop\n        /* \"#utility.yul\":334:460   */\n      swap2\n      swap1\n      pop\n      jump\t// out\n        /* \"#utility.yul\":466:562   */\n    tag_115:\n        /* \"#utility.yul\":503:510   */\n      0x00\n        /* \"#utility.yul\":532:556   */\n      tag_163\n        /* \"#utility.yul\":550:555   */\n      dup3\n        /* \"#utility.yul\":532:556   */\n      tag_114\n      jump\t// in\n    tag_163:\n        /* \"#utility.yul\":521:556   */\n      swap1\n      pop\n        /* \"#utility.yul\":466:562   */\n      swap2\n      swap1\n      pop\n      jump\t// out\n        /* \"#utility.yul\":568:690   */\n    tag_116:\n        /* \"#utility.yul\":641:665   */\n      tag_165\n        /* \"#utility.yul\":659:664   */\n      dup2\n        /* \"#utility.yul\":641:665   */\n      tag_115\n      jump\t// in\n    tag_165:\n        /* \"#utility.yul\":634:639   */\n      dup2\n        /* \"#utility.yul\":631:666   */\n      eq\n        /* \"#utility.yul\":621:684   */\n      tag_166\n      jumpi\n        /* \"#utility.yul\":680:681   */\n      0x00\n        /* \"#utility.yul\":677:678   */\n      dup1\n        /* \"#utility.yul\":670:682   */\n      revert\n        /* \"#utility.yul\":621:684   */\n    tag_166:\n        /* \"#utility.yul\":568:690   */\n      pop\n      jump\t// out\n        /* \"#utility.yul\":696:835   */\n    tag_117:\n        /* \"#utility.yul\":742:747   */\n      0x00\n        /* \"#utility.yul\":780:786   */\n      dup2\n        /* \"#utility.yul\":767:787   */\n      calldataload\n        /* \"#utility.yul\":758:787   */\n      swap1\n      pop\n        /* \"#utility.yul\":796:829   */\n      tag_168\n        /* \"#utility.yul\":823:828   */\n      dup2\n        /* \"#utility.yul\":796:829   */\n      tag_116\n      jump\t// in\n    tag_168:\n        /* \"#utility.yul\":696:835   */\n      swap3\n      swap2\n      pop\n      pop\n      jump\t// out\n        /* \"#utility.yul\":841:1170   */\n    tag_14:\n        /* \"#utility.yul\":900:906   */\n      0x00\n        /* \"#utility.yul\":949:951   */\n      0x20\n        /* \"#utility.yul\":937:946   */\n      dup3\n        /* \"#utility.yul\":928:935   */\n      dup5\n        /* \"#utility.yul\":924:947   */\n      sub\n        /* \"#utility.yul\":920:952   */\n      slt\n        /* \"#utility.yul\":917:1036   */\n      iszero\n      tag_170\n      jumpi\n        /* \"#utility.yul\":955:1034   */\n      tag_171\n      tag_112\n      jump\t// in\n    tag_171:\n        /* \"#utility.yul\":917:1036   */\n    tag_170:\n        /* \"#utility.yul\":1075:1076   */\n      0x00\n        /* \"#utility.yul\":1100:1153   */\n      tag_172\n        /* \"#utility.yul\":1145:1152   */\n      dup5\n        /* \"#utility.yul\":1136:1142   */\n      dup3\n        /* \"#utility.yul\":1125:1134   */\n      dup6\n        /* \"#utility.yul\":1121:1143   */\n      add\n        /* \"#utility.yul\":1100:1153   */\n      tag_117\n      jump\t// in\n    tag_172:\n        /* \"#utility.yul\":1090:1153   */\n      swap2\n      pop\n        /* \"#utility.yul\":1046:1163   */\n      pop\n        /* \"#utility.yul\":841:1170   */\n      swap3\n      swap2\n      pop\n      pop\n      jump\t// out\n        /* \"#utility.yul\":1176:1253   */\n    tag_118:\n        /* \"#utility.yul\":1213:1220   */\n      0x00\n        /* \"#utility.yul\":1242:1247   */\n      dup2\n        /* \"#utility.yul\":1231:1247   */\n      swap1\n      pop\n        /* \"#utility.yul\":1176:1253   */\n      swap2\n      swap1\n      pop\n      jump\t// out\n        /* \"#utility.yul\":1259:1377   */\n    tag_119:\n        /* \"#utility.yul\":1346:1370   */\n      tag_175\n        /* \"#utility.yul\":1364:1369   */\n      dup2\n        /* \"#utility.yul\":1346:1370   */\n      tag_118\n      jump\t// in\n    tag_175:\n        /* \"#utility.yul\":1341:1344   */\n      dup3\n        /* \"#utility.yul\":1334:1371   */\n      mstore\n        /* \"#utility.yul\":1259:1377   */\n      pop\n      pop\n      jump\t// out\n        /* \"#utility.yul\":1383:1605   */\n    tag_17:\n        /* \"#utility.yul\":1476:1480   */\n      0x00\n        /* \"#utility.yul\":1514:1516   */\n      0x20\n        /* \"#utility.yul\":1503:1512   */\n      dup3\n        /* \"#utility.yul\":1499:1517   */\n      add\n        /* \"#utility.yul\":1491:1517   */\n      swap1\n      pop\n        /* \"#utility.yul\":1527:1598   */\n      tag_177\n        /* \"#utility.yul\":1595:1596   */\n      0x00\n        /* \"#utility.yul\":1584:1593   */\n      dup4\n        /* \"#utility.yul\":1580:1597   */\n      add\n        /* \"#utility.yul\":1571:1577   */\n      dup5\n        /* \"#utility.yul\":1527:1598   */\n      tag_119\n      jump\t// in\n    tag_177:\n        /* \"#utility.yul\":1383:1605   */\n      swap3\n      swap2\n      pop\n      pop\n      jump\t// out\n        /* \"#utility.yul\":1611:1733   */\n    tag_120:\n        /* \"#utility.yul\":1684:1708   */\n      tag_179\n        /* \"#utility.yul\":1702:1707   */\n      dup2\n        /* \"#utility.yul\":1684:1708   */\n      tag_118\n      jump\t// in\n    tag_179:\n        /* \"#utility.yul\":1677:1682   */\n      dup2\n        /* \"#utility.yul\":1674:1709   */\n      eq\n        /* \"#utility.yul\":1664:1727   */\n      tag_180\n      jumpi\n        /* \"#utility.yul\":1723:1724   */\n      0x00\n        /* \"#utility.yul\":1720:1721   */\n      dup1\n        /* \"#utility.yul\":1713:1725   */\n      revert\n        /* \"#utility.yul\":1664:1727   */\n    tag_180:\n        /* \"#utility.yul\":1611:1733   */\n      pop\n      jump\t// out\n        /* \"#utility.yul\":1739:1878   */\n    tag_121:\n        /* \"#utility.yul\":1785:1790   */\n      0x00\n        /* \"#utility.yul\":1823:1829   */\n      dup2\n        /* \"#utility.yul\":1810:1830   */\n      calldataload\n        /* \"#utility.yul\":1801:1830   */\n      swap1\n      pop\n        /* \"#utility.yul\":1839:1872   */\n      tag_182\n        /* \"#utility.yul\":1866:1871   */\n      dup2\n        /* \"#utility.yul\":1839:1872   */\n      tag_120\n      jump\t// in\n    tag_182:\n        /* \"#utility.yul\":1739:1878   */\n      swap3\n      swap2\n      pop\n      pop\n      jump\t// out\n        /* \"#utility.yul\":1884:2358   */\n    tag_20:\n        /* \"#utility.yul\":1952:1958   */\n      0x00\n        /* \"#utility.yul\":1960:1966   */\n      dup1\n        /* \"#utility.yul\":2009:2011   */\n      0x40\n        /* \"#utility.yul\":1997:2006   */\n      dup4\n        /* \"#utility.yul\":1988:1995   */\n      dup6\n        /* \"#utility.yul\":1984:2007   */\n      sub\n        /* \"#utility.yul\":1980:2012   */\n      slt\n        /* \"#utility.yul\":1977:2096   */\n      iszero\n      tag_184\n      jumpi\n        /* \"#utility.yul\":2015:2094   */\n      tag_185\n      tag_112\n      jump\t// in\n    tag_185:\n        /* \"#utility.yul\":1977:2096   */\n    tag_184:\n        /* \"#utility.yul\":2135:2136   */\n      0x00\n        /* \"#utility.yul\":2160:2213   */\n      tag_186\n        /* \"#utility.yul\":2205:2212   */\n      dup6\n        /* \"#utility.yul\":2196:2202   */\n      dup3\n        /* \"#utility.yul\":2185:2194   */\n      dup7\n        /* \"#utility.yul\":2181:2203   */\n      add\n        /* \"#utility.yul\":2160:2213   */\n      tag_117\n      jump\t// in\n    tag_186:\n        /* \"#utility.yul\":2150:2213   */\n      swap3\n      pop\n        /* \"#utility.yul\":2106:2223   */\n      pop\n        /* \"#utility.yul\":2262:2264   */\n      0x20\n        /* \"#utility.yul\":2288:2341   */\n      tag_187\n        /* \"#utility.yul\":2333:2340   */\n      dup6\n        /* \"#utility.yul\":2324:2330   */\n      dup3\n        /* \"#utility.yul\":2313:2322   */\n      dup7\n        /* \"#utility.yul\":2309:2331   */\n      add\n        /* \"#utility.yul\":2288:2341   */\n      tag_121\n      jump\t// in\n    tag_187:\n        /* \"#utility.yul\":2278:2341   */\n      swap2\n      pop\n        /* \"#utility.yul\":2233:2351   */\n      pop\n        /* \"#utility.yul\":1884:2358   */\n      swap3\n      pop\n      swap3\n      swap1\n      pop\n      jump\t// out\n        /* \"#utility.yul\":2364:2838   */\n    tag_24:\n        /* \"#utility.yul\":2432:2438   */\n      0x00\n        /* \"#utility.yul\":2440:2446   */\n      dup1\n        /* \"#utility.yul\":2489:2491   */\n      0x40\n        /* \"#utility.yul\":2477:2486   */\n      dup4\n        /* \"#utility.yul\":2468:2475   */\n      dup6\n        /* \"#utility.yul\":2464:2487   */\n      sub\n        /* \"#utility.yul\":2460:2492   */\n      slt\n        /* \"#utility.yul\":2457:2576   */\n      iszero\n      tag_189\n      jumpi\n        /* \"#utility.yul\":2495:2574   */\n      tag_190\n      tag_112\n      jump\t// in\n    tag_190:\n        /* \"#utility.yul\":2457:2576   */\n    tag_189:\n        /* \"#utility.yul\":2615:2616   */\n      0x00\n        /* \"#utility.yul\":2640:2693   */\n      tag_191\n        /* \"#utility.yul\":2685:2692   */\n      dup6\n        /* \"#utility.yul\":2676:2682   */\n      dup3\n        /* \"#utility.yul\":2665:2674   */\n      dup7\n        /* \"#utility.yul\":2661:2683   */\n      add\n        /* \"#utility.yul\":2640:2693   */\n      tag_121\n      jump\t// in\n    tag_191:\n        /* \"#utility.yul\":2630:2693   */\n      swap3\n      pop\n        /* \"#utility.yul\":2586:2703   */\n      pop\n        /* \"#utility.yul\":2742:2744   */\n      0x20\n        /* \"#utility.yul\":2768:2821   */\n      tag_192\n        /* \"#utility.yul\":2813:2820   */\n      dup6\n        /* \"#utility.yul\":2804:2810   */\n      dup3\n        /* \"#utility.yul\":2793:2802   */\n      dup7\n        /* \"#utility.yul\":2789:2811   */\n      add\n        /* \"#utility.yul\":2768:2821   */\n      tag_117\n      jump\t// in\n    tag_192:\n        /* \"#utility.yul\":2758:2821   */\n      swap2\n      pop\n        /* \"#utility.yul\":2713:2831   */\n      pop\n        /* \"#utility.yul\":2364:2838   */\n      swap3\n      pop\n      swap3\n      swap1\n      pop\n      jump\t// out\n        /* \"#utility.yul\":2844:3463   */\n    tag_34:\n        /* \"#utility.yul\":2921:2927   */\n      0x00\n        /* \"#utility.yul\":2929:2935   */\n      dup1\n        /* \"#utility.yul\":2937:2943   */\n      0x00\n        /* \"#utility.yul\":2986:2988   */\n      0x60\n        /* \"#utility.yul\":2974:2983   */\n      dup5\n        /* \"#utility.yul\":2965:2972   */\n      dup7\n        /* \"#utility.yul\":2961:2984   */\n      sub\n        /* \"#utility.yul\":2957:2989   */\n      slt\n        /* \"#utility.yul\":2954:3073   */\n      iszero\n      tag_194\n      jumpi\n        /* \"#utility.yul\":2992:3071   */\n      tag_195\n      tag_112\n      jump\t// in\n    tag_195:\n        /* \"#utility.yul\":2954:3073   */\n    tag_194:\n        /* \"#utility.yul\":3112:3113   */\n      0x00\n        /* \"#utility.yul\":3137:3190   */\n      tag_196\n        /* \"#utility.yul\":3182:3189   */\n      dup7\n        /* \"#utility.yul\":3173:3179   */\n      dup3\n        /* \"#utility.yul\":3162:3171   */\n      dup8\n        /* \"#utility.yul\":3158:3180   */\n      add\n        /* \"#utility.yul\":3137:3190   */\n      tag_117\n      jump\t// in\n    tag_196:\n        /* \"#utility.yul\":3127:3190   */\n      swap4\n      pop\n        /* \"#utility.yul\":3083:3200   */\n      pop\n        /* \"#utility.yul\":3239:3241   */\n      0x20\n        /* \"#utility.yul\":3265:3318   */\n      tag_197\n        /* \"#utility.yul\":3310:3317   */\n      dup7\n        /* \"#utility.yul\":3301:3307   */\n      dup3\n        /* \"#utility.yul\":3290:3299   */\n      dup8\n        /* \"#utility.yul\":3286:3308   */\n      add\n        /* \"#utility.yul\":3265:3318   */\n      tag_117\n      jump\t// in\n    tag_197:\n        /* \"#utility.yul\":3255:3318   */\n      swap3\n      pop\n        /* \"#utility.yul\":3210:3328   */\n      pop\n        /* \"#utility.yul\":3367:3369   */\n      0x40\n        /* \"#utility.yul\":3393:3446   */\n      tag_198\n        /* \"#utility.yul\":3438:3445   */\n      dup7\n        /* \"#utility.yul\":3429:3435   */\n      dup3\n        /* \"#utility.yul\":3418:3427   */\n      dup8\n        /* \"#utility.yul\":3414:3436   */\n      add\n        /* \"#utility.yul\":3393:3446   */\n      tag_121\n      jump\t// in\n    tag_198:\n        /* \"#utility.yul\":3383:3446   */\n      swap2\n      pop\n        /* \"#utility.yul\":3338:3456   */\n      pop\n        /* \"#utility.yul\":2844:3463   */\n      swap3\n      pop\n      swap3\n      pop\n      swap3\n      jump\t// out\n        /* \"#utility.yul\":3469:3587   */\n    tag_122:\n        /* \"#utility.yul\":3556:3580   */\n      tag_200\n        /* \"#utility.yul\":3574:3579   */\n      dup2\n        /* \"#utility.yul\":3556:3580   */\n      tag_115\n      jump\t// in\n    tag_200:\n        /* \"#utility.yul\":3551:3554   */\n      dup3\n        /* \"#utility.yul\":3544:3581   */\n      mstore\n        /* \"#utility.yul\":3469:3587   */\n      pop\n      pop\n      jump\t// out\n        /* \"#utility.yul\":3593:3815   */\n    tag_40:\n        /* \"#utility.yul\":3686:3690   */\n      0x00\n        /* \"#utility.yul\":3724:3726   */\n      0x20\n        /* \"#utility.yul\":3713:3722   */\n      dup3\n        /* \"#utility.yul\":3709:3727   */\n      add\n        /* \"#utility.yul\":3701:3727   */\n      swap1\n      pop\n        /* \"#utility.yul\":3737:3808   */\n      tag_202\n        /* \"#utility.yul\":3805:3806   */\n      0x00\n        /* \"#utility.yul\":3794:3803   */\n      dup4\n        /* \"#utility.yul\":3790:3807   */\n      add\n        /* \"#utility.yul\":3781:3787   */\n      dup5\n        /* \"#utility.yul\":3737:3808   */\n      tag_122\n      jump\t// in\n    tag_202:\n        /* \"#utility.yul\":3593:3815   */\n      swap3\n      swap2\n      pop\n      pop\n      jump\t// out\n        /* \"#utility.yul\":3821:3881   */\n    tag_123:\n        /* \"#utility.yul\":3849:3852   */\n      0x00\n        /* \"#utility.yul\":3870:3875   */\n      dup2\n        /* \"#utility.yul\":3863:3875   */\n      swap1\n      pop\n        /* \"#utility.yul\":3821:3881   */\n      swap2\n      swap1\n      pop\n      jump\t// out\n        /* \"#utility.yul\":3887:4029   */\n    tag_124:\n        /* \"#utility.yul\":3937:3946   */\n      0x00\n        /* \"#utility.yul\":3970:4023   */\n      tag_205\n        /* \"#utility.yul\":3988:4022   */\n      tag_206\n        /* \"#utility.yul\":3997:4021   */\n      tag_207\n        /* \"#utility.yul\":4015:4020   */\n      dup5\n        /* \"#utility.yul\":3997:4021   */\n      tag_114\n      jump\t// in\n    tag_207:\n        /* \"#utility.yul\":3988:4022   */\n      tag_123\n      jump\t// in\n    tag_206:\n        /* \"#utility.yul\":3970:4023   */\n      tag_114\n      jump\t// in\n    tag_205:\n        /* \"#utility.yul\":3957:4023   */\n      swap1\n      pop\n        /* \"#utility.yul\":3887:4029   */\n      swap2\n      swap1\n      pop\n      jump\t// out\n        /* \"#utility.yul\":4035:4161   */\n    tag_125:\n        /* \"#utility.yul\":4085:4094   */\n      0x00\n        /* \"#utility.yul\":4118:4155   */\n      tag_209\n        /* \"#utility.yul\":4149:4154   */\n      dup3\n        /* \"#utility.yul\":4118:4155   */\n      tag_124\n      jump\t// in\n    tag_209:\n        /* \"#utility.yul\":4105:4155   */\n      swap1\n      pop\n        /* \"#utility.yul\":4035:4161   */\n      swap2\n      swap1\n      pop\n      jump\t// out\n        /* \"#utility.yul\":4167:4307   */\n    tag_126:\n        /* \"#utility.yul\":4231:4240   */\n      0x00\n        /* \"#utility.yul\":4264:4301   */\n      tag_211\n        /* \"#utility.yul\":4295:4300   */\n      dup3\n        /* \"#utility.yul\":4264:4301   */\n      tag_125\n      jump\t// in\n    tag_211:\n        /* \"#utility.yul\":4251:4301   */\n      swap1\n      pop\n        /* \"#utility.yul\":4167:4307   */\n      swap2\n      swap1\n      pop\n      jump\t// out\n        /* \"#utility.yul\":4313:4472   */\n    tag_127:\n        /* \"#utility.yul\":4414:4465   */\n      tag_213\n        /* \"#utility.yul\":4459:4464   */\n      dup2\n        /* \"#utility.yul\":4414:4465   */\n      tag_126\n      jump\t// in\n    tag_213:\n        /* \"#utility.yul\":4409:4412   */\n      dup3\n        /* \"#utility.yul\":4402:4466   */\n      mstore\n        /* \"#utility.yul\":4313:4472   */\n      pop\n      pop\n      jump\t// out\n        /* \"#utility.yul\":4478:4728   */\n    tag_44:\n        /* \"#utility.yul\":4585:4589   */\n      0x00\n        /* \"#utility.yul\":4623:4625   */\n      0x20\n        /* \"#utility.yul\":4612:4621   */\n      dup3\n        /* \"#utility.yul\":4608:4626   */\n      add\n        /* \"#utility.yul\":4600:4626   */\n      swap1\n      pop\n        /* \"#utility.yul\":4636:4721   */\n      tag_215\n        /* \"#utility.yul\":4718:4719   */\n      0x00\n        /* \"#utility.yul\":4707:4716   */\n      dup4\n        /* \"#utility.yul\":4703:4720   */\n      add\n        /* \"#utility.yul\":4694:4700   */\n      dup5\n        /* \"#utility.yul\":4636:4721   */\n      tag_127\n      jump\t// in\n    tag_215:\n        /* \"#utility.yul\":4478:4728   */\n      swap3\n      swap2\n      pop\n      pop\n      jump\t// out\n        /* \"#utility.yul\":4734:4903   */\n    tag_128:\n        /* \"#utility.yul\":4818:4829   */\n      0x00\n        /* \"#utility.yul\":4852:4858   */\n      dup3\n        /* \"#utility.yul\":4847:4850   */\n      dup3\n        /* \"#utility.yul\":4840:4859   */\n      mstore\n        /* \"#utility.yul\":4892:4896   */\n      0x20\n        /* \"#utility.yul\":4887:4890   */\n      dup3\n        /* \"#utility.yul\":4883:4897   */\n      add\n        /* \"#utility.yul\":4868:4897   */\n      swap1\n      pop\n        /* \"#utility.yul\":4734:4903   */\n      swap3\n      swap2\n      pop\n      pop\n      jump\t// out\n        /* \"#utility.yul\":4909:5079   */\n    tag_129:\n        /* \"#utility.yul\":5049:5071   */\n      0x496e73756666696369656e742062616c616e6365000000000000000000000000\n        /* \"#utility.yul\":5045:5046   */\n      0x00\n        /* \"#utility.yul\":5037:5043   */\n      dup3\n        /* \"#utility.yul\":5033:5047   */\n      add\n        /* \"#utility.yul\":5026:5072   */\n      mstore\n        /* \"#utility.yul\":4909:5079   */\n      pop\n      jump\t// out\n        /* \"#utility.yul\":5085:5451   */\n    tag_130:\n        /* \"#utility.yul\":5227:5230   */\n      0x00\n        /* \"#utility.yul\":5248:5315   */\n      tag_219\n        /* \"#utility.yul\":5312:5314   */\n      0x14\n        /* \"#utility.yul\":5307:5310   */\n      dup4\n        /* \"#utility.yul\":5248:5315   */\n      tag_128\n      jump\t// in\n    tag_219:\n        /* \"#utility.yul\":5241:5315   */\n      swap2\n      pop\n        /* \"#utility.yul\":5324:5417   */\n      tag_220\n        /* \"#utility.yul\":5413:5416   */\n      dup3\n        /* \"#utility.yul\":5324:5417   */\n      tag_129\n      jump\t// in\n    tag_220:\n        /* \"#utility.yul\":5442:5444   */\n      0x20\n        /* \"#utility.yul\":5437:5440   */\n      dup3\n        /* \"#utility.yul\":5433:5445   */\n      add\n        /* \"#utility.yul\":5426:5445   */\n      swap1\n      pop\n        /* \"#utility.yul\":5085:5451   */\n      swap2\n      swap1\n      pop\n      jump\t// out\n        /* \"#utility.yul\":5457:5876   */\n    tag_49:\n        /* \"#utility.yul\":5623:5627   */\n      0x00\n        /* \"#utility.yul\":5661:5663   */\n      0x20\n        /* \"#utility.yul\":5650:5659   */\n      dup3\n        /* \"#utility.yul\":5646:5664   */\n      add\n        /* \"#utility.yul\":5638:5664   */\n      swap1\n      pop\n        /* \"#utility.yul\":5710:5719   */\n      dup2\n        /* \"#utility.yul\":5704:5708   */\n      dup2\n        /* \"#utility.yul\":5700:5720   */\n      sub\n        /* \"#utility.yul\":5696:5697   */\n      0x00\n        /* \"#utility.yul\":5685:5694   */\n      dup4\n        /* \"#utility.yul\":5681:5698   */\n      add\n        /* \"#utility.yul\":5674:5721   */\n      mstore\n        /* \"#utility.yul\":5738:5869   */\n      tag_222\n        /* \"#utility.yul\":5864:5868   */\n      dup2\n        /* \"#utility.yul\":5738:5869   */\n      tag_130\n      jump\t// in\n    tag_222:\n        /* \"#utility.yul\":5730:5869   */\n      swap1\n      pop\n        /* \"#utility.yul\":5457:5876   */\n      swap2\n      swap1\n      pop\n      jump\t// out\n        /* \"#utility.yul\":5882:6062   */\n    tag_131:\n        /* \"#utility.yul\":5930:6007   */\n      0x4e487b7100000000000000000000000000000000000000000000000000000000\n        /* \"#utility.yul\":5927:5928   */\n      0x00\n        /* \"#utility.yul\":5920:6008   */\n      mstore\n        /* \"#utility.yul\":6027:6031   */\n      0x11\n        /* \"#utility.yul\":6024:6025   */\n      0x04\n        /* \"#utility.yul\":6017:6032   */\n      mstore\n        /* \"#utility.yul\":6051:6055   */\n      0x24\n        /* \"#utility.yul\":6048:6049   */\n      0x00\n        /* \"#utility.yul\":6041:6056   */\n      revert\n        /* \"#utility.yul\":6068:6262   */\n    tag_51:\n        /* \"#utility.yul\":6108:6112   */\n      0x00\n        /* \"#utility.yul\":6128:6148   */\n      tag_225\n        /* \"#utility.yul\":6146:6147   */\n      dup3\n        /* \"#utility.yul\":6128:6148   */\n      tag_118\n      jump\t// in\n    tag_225:\n        /* \"#utility.yul\":6123:6148   */\n      swap2\n      pop\n        /* \"#utility.yul\":6162:6182   */\n      tag_226\n        /* \"#utility.yul\":6180:6181   */\n      dup4\n        /* \"#utility.yul\":6162:6182   */\n      tag_118\n      jump\t// in\n    tag_226:\n        /* \"#utility.yul\":6157:6182   */\n      swap3\n      pop\n        /* \"#utility.yul\":6206:6207   */\n      dup3\n        /* \"#utility.yul\":6203:6204   */\n      dup3\n        /* \"#utility.yul\":6199:6208   */\n      sub\n        /* \"#utility.yul\":6191:6208   */\n      swap1\n      pop\n        /* \"#utility.yul\":6230:6231   */\n      dup2\n        /* \"#utility.yul\":6224:6228   */\n      dup2\n        /* \"#utility.yul\":6221:6232   */\n      gt\n        /* \"#utility.yul\":6218:6255   */\n      iszero\n      tag_227\n      jumpi\n        /* \"#utility.yul\":6235:6253   */\n      tag_228\n      tag_131\n      jump\t// in\n    tag_228:\n        /* \"#utility.yul\":6218:6255   */\n    tag_227:\n        /* \"#utility.yul\":6068:6262   */\n      swap3\n      swap2\n      pop\n      pop\n      jump\t// out\n        /* \"#utility.yul\":6268:6710   */\n    tag_53:\n        /* \"#utility.yul\":6417:6421   */\n      0x00\n        /* \"#utility.yul\":6455:6457   */\n      0x60\n        /* \"#utility.yul\":6444:6453   */\n      dup3\n        /* \"#utility.yul\":6440:6458   */\n      add\n        /* \"#utility.yul\":6432:6458   */\n      swap1\n      pop\n        /* \"#utility.yul\":6468:6539   */\n      tag_230\n        /* \"#utility.yul\":6536:6537   */\n      0x00\n        /* \"#utility.yul\":6525:6534   */\n      dup4\n        /* \"#utility.yul\":6521:6538   */\n      add\n        /* \"#utility.yul\":6512:6518   */\n      dup7\n        /* \"#utility.yul\":6468:6539   */\n      tag_122\n      jump\t// in\n    tag_230:\n        /* \"#utility.yul\":6549:6621   */\n      tag_231\n        /* \"#utility.yul\":6617:6619   */\n      0x20\n        /* \"#utility.yul\":6606:6615   */\n      dup4\n        /* \"#utility.yul\":6602:6620   */\n      add\n        /* \"#utility.yul\":6593:6599   */\n      dup6\n        /* \"#utility.yul\":6549:6621   */\n      tag_122\n      jump\t// in\n    tag_231:\n        /* \"#utility.yul\":6631:6703   */\n      tag_232\n        /* \"#utility.yul\":6699:6701   */\n      0x40\n        /* \"#utility.yul\":6688:6697   */\n      dup4\n        /* \"#utility.yul\":6684:6702   */\n      add\n        /* \"#utility.yul\":6675:6681   */\n      dup5\n        /* \"#utility.yul\":6631:6703   */\n      tag_119\n      jump\t// in\n    tag_232:\n        /* \"#utility.yul\":6268:6710   */\n      swap5\n      swap4\n      pop\n      pop\n      pop\n      pop\n      jump\t// out\n        /* \"#utility.yul\":6716:6806   */\n    tag_132:\n        /* \"#utility.yul\":6750:6757   */\n      0x00\n        /* \"#utility.yul\":6793:6798   */\n      dup2\n        /* \"#utility.yul\":6786:6799   */\n      iszero\n        /* \"#utility.yul\":6779:6800   */\n      iszero\n        /* \"#utility.yul\":6768:6800   */\n      swap1\n      pop\n        /* \"#utility.yul\":6716:6806   */\n      swap2\n      swap1\n      pop\n      jump\t// out\n        /* \"#utility.yul\":6812:6928   */\n    tag_133:\n        /* \"#utility.yul\":6882:6903   */\n      tag_235\n        /* \"#utility.yul\":6897:6902   */\n      dup2\n        /* \"#utility.yul\":6882:6903   */\n      tag_132\n      jump\t// in\n    tag_235:\n        /* \"#utility.yul\":6875:6880   */\n      dup2\n        /* \"#utility.yul\":6872:6904   */\n      eq\n        /* \"#utility.yul\":6862:6922   */\n      tag_236\n      jumpi\n        /* \"#utility.yul\":6918:6919   */\n      0x00\n        /* \"#utility.yul\":6915:6916   */\n      dup1\n        /* \"#utility.yul\":6908:6920   */\n      revert\n        /* \"#utility.yul\":6862:6922   */\n    tag_236:\n        /* \"#utility.yul\":6812:6928   */\n      pop\n      jump\t// out\n        /* \"#utility.yul\":6934:7071   */\n    tag_134:\n        /* \"#utility.yul\":6988:6993   */\n      0x00\n        /* \"#utility.yul\":7019:7025   */\n      dup2\n        /* \"#utility.yul\":7013:7026   */\n      mload\n        /* \"#utility.yul\":7004:7026   */\n      swap1\n      pop\n        /* \"#utility.yul\":7035:7065   */\n      tag_238\n        /* \"#utility.yul\":7059:7064   */\n      dup2\n        /* \"#utility.yul\":7035:7065   */\n      tag_133\n      jump\t// in\n    tag_238:\n        /* \"#utility.yul\":6934:7071   */\n      swap3\n      swap2\n      pop\n      pop\n      jump\t// out\n        /* \"#utility.yul\":7077:7422   */\n    tag_57:\n        /* \"#utility.yul\":7144:7150   */\n      0x00\n        /* \"#utility.yul\":7193:7195   */\n      0x20\n        /* \"#utility.yul\":7181:7190   */\n      dup3\n        /* \"#utility.yul\":7172:7179   */\n      dup5\n        /* \"#utility.yul\":7168:7191   */\n      sub\n        /* \"#utility.yul\":7164:7196   */\n      slt\n        /* \"#utility.yul\":7161:7280   */\n      iszero\n      tag_240\n      jumpi\n        /* \"#utility.yul\":7199:7278   */\n      tag_241\n      tag_112\n      jump\t// in\n    tag_241:\n        /* \"#utility.yul\":7161:7280   */\n    tag_240:\n        /* \"#utility.yul\":7319:7320   */\n      0x00\n        /* \"#utility.yul\":7344:7405   */\n      tag_242\n        /* \"#utility.yul\":7397:7404   */\n      dup5\n        /* \"#utility.yul\":7388:7394   */\n      dup3\n        /* \"#utility.yul\":7377:7386   */\n      dup6\n        /* \"#utility.yul\":7373:7395   */\n      add\n        /* \"#utility.yul\":7344:7405   */\n      tag_134\n      jump\t// in\n    tag_242:\n        /* \"#utility.yul\":7334:7405   */\n      swap2\n      pop\n        /* \"#utility.yul\":7290:7415   */\n      pop\n        /* \"#utility.yul\":7077:7422   */\n      swap3\n      swap2\n      pop\n      pop\n      jump\t// out\n        /* \"#utility.yul\":7428:7593   */\n    tag_135:\n        /* \"#utility.yul\":7568:7585   */\n      0x5472616e73666572206661696c65640000000000000000000000000000000000\n        /* \"#utility.yul\":7564:7565   */\n      0x00\n        /* \"#utility.yul\":7556:7562   */\n      dup3\n        /* \"#utility.yul\":7552:7566   */\n      add\n        /* \"#utility.yul\":7545:7586   */\n      mstore\n        /* \"#utility.yul\":7428:7593   */\n      pop\n      jump\t// out\n        /* \"#utility.yul\":7599:7965   */\n    tag_136:\n        /* \"#utility.yul\":7741:7744   */\n      0x00\n        /* \"#utility.yul\":7762:7829   */\n      tag_245\n        /* \"#utility.yul\":7826:7828   */\n      0x0f\n        /* \"#utility.yul\":7821:7824   */\n      dup4\n        /* \"#utility.yul\":7762:7829   */\n      tag_128\n      jump\t// in\n    tag_245:\n        /* \"#utility.yul\":7755:7829   */\n      swap2\n      pop\n        /* \"#utility.yul\":7838:7931   */\n      tag_246\n        /* \"#utility.yul\":7927:7930   */\n      dup3\n        /* \"#utility.yul\":7838:7931   */\n      tag_135\n      jump\t// in\n    tag_246:\n        /* \"#utility.yul\":7956:7958   */\n      0x20\n        /* \"#utility.yul\":7951:7954   */\n      dup3\n        /* \"#utility.yul\":7947:7959   */\n      add\n        /* \"#utility.yul\":7940:7959   */\n      swap1\n      pop\n        /* \"#utility.yul\":7599:7965   */\n      swap2\n      swap1\n      pop\n      jump\t// out\n        /* \"#utility.yul\":7971:8390   */\n    tag_60:\n        /* \"#utility.yul\":8137:8141   */\n      0x00\n        /* \"#utility.yul\":8175:8177   */\n      0x20\n        /* \"#utility.yul\":8164:8173   */\n      dup3\n        /* \"#utility.yul\":8160:8178   */\n      add\n        /* \"#utility.yul\":8152:8178   */\n      swap1\n      pop\n        /* \"#utility.yul\":8224:8233   */\n      dup2\n        /* \"#utility.yul\":8218:8222   */\n      dup2\n        /* \"#utility.yul\":8214:8234   */\n      sub\n        /* \"#utility.yul\":8210:8211   */\n      0x00\n        /* \"#utility.yul\":8199:8208   */\n      dup4\n        /* \"#utility.yul\":8195:8212   */\n      add\n        /* \"#utility.yul\":8188:8235   */\n      mstore\n        /* \"#utility.yul\":8252:8383   */\n      tag_248\n        /* \"#utility.yul\":8378:8382   */\n      dup2\n        /* \"#utility.yul\":8252:8383   */\n      tag_136\n      jump\t// in\n    tag_248:\n        /* \"#utility.yul\":8244:8383   */\n      swap1\n      pop\n        /* \"#utility.yul\":7971:8390   */\n      swap2\n      swap1\n      pop\n      jump\t// out\n        /* \"#utility.yul\":8396:8505   */\n    tag_137:\n        /* \"#utility.yul\":8477:8498   */\n      tag_250\n        /* \"#utility.yul\":8492:8497   */\n      dup2\n        /* \"#utility.yul\":8477:8498   */\n      tag_132\n      jump\t// in\n    tag_250:\n        /* \"#utility.yul\":8472:8475   */\n      dup3\n        /* \"#utility.yul\":8465:8499   */\n      mstore\n        /* \"#utility.yul\":8396:8505   */\n      pop\n      pop\n      jump\t// out\n        /* \"#utility.yul\":8511:8831   */\n    tag_62:\n        /* \"#utility.yul\":8626:8630   */\n      0x00\n        /* \"#utility.yul\":8664:8666   */\n      0x40\n        /* \"#utility.yul\":8653:8662   */\n      dup3\n        /* \"#utility.yul\":8649:8667   */\n      add\n        /* \"#utility.yul\":8641:8667   */\n      swap1\n      pop\n        /* \"#utility.yul\":8677:8748   */\n      tag_252\n        /* \"#utility.yul\":8745:8746   */\n      0x00\n        /* \"#utility.yul\":8734:8743   */\n      dup4\n        /* \"#utility.yul\":8730:8747   */\n      add\n        /* \"#utility.yul\":8721:8727   */\n      dup6\n        /* \"#utility.yul\":8677:8748   */\n      tag_119\n      jump\t// in\n    tag_252:\n        /* \"#utility.yul\":8758:8824   */\n      tag_253\n        /* \"#utility.yul\":8820:8822   */\n      0x20\n        /* \"#utility.yul\":8809:8818   */\n      dup4\n        /* \"#utility.yul\":8805:8823   */\n      add\n        /* \"#utility.yul\":8796:8802   */\n      dup5\n        /* \"#utility.yul\":8758:8824   */\n      tag_137\n      jump\t// in\n    tag_253:\n        /* \"#utility.yul\":8511:8831   */\n      swap4\n      swap3\n      pop\n      pop\n      pop\n      jump\t// out\n        /* \"#utility.yul\":8837:9028   */\n    tag_71:\n        /* \"#utility.yul\":8877:8880   */\n      0x00\n        /* \"#utility.yul\":8896:8916   */\n      tag_255\n        /* \"#utility.yul\":8914:8915   */\n      dup3\n        /* \"#utility.yul\":8896:8916   */\n      tag_118\n      jump\t// in\n    tag_255:\n        /* \"#utility.yul\":8891:8916   */\n      swap2\n      pop\n        /* \"#utility.yul\":8930:8950   */\n      tag_256\n        /* \"#utility.yul\":8948:8949   */\n      dup4\n        /* \"#utility.yul\":8930:8950   */\n      tag_118\n      jump\t// in\n    tag_256:\n        /* \"#utility.yul\":8925:8950   */\n      swap3\n      pop\n        /* \"#utility.yul\":8973:8974   */\n      dup3\n        /* \"#utility.yul\":8970:8971   */\n      dup3\n        /* \"#utility.yul\":8966:8975   */\n      add\n        /* \"#utility.yul\":8959:8975   */\n      swap1\n      pop\n        /* \"#utility.yul\":8994:8997   */\n      dup1\n        /* \"#utility.yul\":8991:8992   */\n      dup3\n        /* \"#utility.yul\":8988:8998   */\n      gt\n        /* \"#utility.yul\":8985:9021   */\n      iszero\n      tag_257\n      jumpi\n        /* \"#utility.yul\":9001:9019   */\n      tag_258\n      tag_131\n      jump\t// in\n    tag_258:\n        /* \"#utility.yul\":8985:9021   */\n    tag_257:\n        /* \"#utility.yul\":8837:9028   */\n      swap3\n      swap2\n      pop\n      pop\n      jump\t// out\n        /* \"#utility.yul\":9034:9575   */\n    tag_73:\n        /* \"#utility.yul\":9205:9209   */\n      0x00\n        /* \"#utility.yul\":9243:9246   */\n      0x80\n        /* \"#utility.yul\":9232:9241   */\n      dup3\n        /* \"#utility.yul\":9228:9247   */\n      add\n        /* \"#utility.yul\":9220:9247   */\n      swap1\n      pop\n        /* \"#utility.yul\":9257:9328   */\n      tag_260\n        /* \"#utility.yul\":9325:9326   */\n      0x00\n        /* \"#utility.yul\":9314:9323   */\n      dup4\n        /* \"#utility.yul\":9310:9327   */\n      add\n        /* \"#utility.yul\":9301:9307   */\n      dup8\n        /* \"#utility.yul\":9257:9328   */\n      tag_122\n      jump\t// in\n    tag_260:\n        /* \"#utility.yul\":9338:9410   */\n      tag_261\n        /* \"#utility.yul\":9406:9408   */\n      0x20\n        /* \"#utility.yul\":9395:9404   */\n      dup4\n        /* \"#utility.yul\":9391:9409   */\n      add\n        /* \"#utility.yul\":9382:9388   */\n      dup7\n        /* \"#utility.yul\":9338:9410   */\n      tag_122\n      jump\t// in\n    tag_261:\n        /* \"#utility.yul\":9420:9492   */\n      tag_262\n        /* \"#utility.yul\":9488:9490   */\n      0x40\n        /* \"#utility.yul\":9477:9486   */\n      dup4\n        /* \"#utility.yul\":9473:9491   */\n      add\n        /* \"#utility.yul\":9464:9470   */\n      dup6\n        /* \"#utility.yul\":9420:9492   */\n      tag_119\n      jump\t// in\n    tag_262:\n        /* \"#utility.yul\":9502:9568   */\n      tag_263\n        /* \"#utility.yul\":9564:9566   */\n      0x60\n        /* \"#utility.yul\":9553:9562   */\n      dup4\n        /* \"#utility.yul\":9549:9567   */\n      add\n        /* \"#utility.yul\":9540:9546   */\n      dup5\n        /* \"#utility.yul\":9502:9568   */\n      tag_137\n      jump\t// in\n    tag_263:\n        /* \"#utility.yul\":9034:9575   */\n      swap6\n      swap5\n      pop\n      pop\n      pop\n      pop\n      pop\n      jump\t// out\n        /* \"#utility.yul\":9581:9821   */\n    tag_138:\n        /* \"#utility.yul\":9721:9755   */\n      0x4f6e6c79207468652064657369676e617465642076616c696461746f72206361\n        /* \"#utility.yul\":9717:9718   */\n      0x00\n        /* \"#utility.yul\":9709:9715   */\n      dup3\n        /* \"#utility.yul\":9705:9719   */\n      add\n        /* \"#utility.yul\":9698:9756   */\n      mstore\n        /* \"#utility.yul\":9790:9813   */\n      0x6e20706572666f726d207468697320616374696f6e0000000000000000000000\n        /* \"#utility.yul\":9785:9787   */\n      0x20\n        /* \"#utility.yul\":9777:9783   */\n      dup3\n        /* \"#utility.yul\":9773:9788   */\n      add\n        /* \"#utility.yul\":9766:9814   */\n      mstore\n        /* \"#utility.yul\":9581:9821   */\n      pop\n      jump\t// out\n        /* \"#utility.yul\":9827:10193   */\n    tag_139:\n        /* \"#utility.yul\":9969:9972   */\n      0x00\n        /* \"#utility.yul\":9990:10057   */\n      tag_266\n        /* \"#utility.yul\":10054:10056   */\n      0x35\n        /* \"#utility.yul\":10049:10052   */\n      dup4\n        /* \"#utility.yul\":9990:10057   */\n      tag_128\n      jump\t// in\n    tag_266:\n        /* \"#utility.yul\":9983:10057   */\n      swap2\n      pop\n        /* \"#utility.yul\":10066:10159   */\n      tag_267\n        /* \"#utility.yul\":10155:10158   */\n      dup3\n        /* \"#utility.yul\":10066:10159   */\n      tag_138\n      jump\t// in\n    tag_267:\n        /* \"#utility.yul\":10184:10186   */\n      0x40\n        /* \"#utility.yul\":10179:10182   */\n      dup3\n        /* \"#utility.yul\":10175:10187   */\n      add\n        /* \"#utility.yul\":10168:10187   */\n      swap1\n      pop\n        /* \"#utility.yul\":9827:10193   */\n      swap2\n      swap1\n      pop\n      jump\t// out\n        /* \"#utility.yul\":10199:10618   */\n    tag_77:\n        /* \"#utility.yul\":10365:10369   */\n      0x00\n        /* \"#utility.yul\":10403:10405   */\n      0x20\n        /* \"#utility.yul\":10392:10401   */\n      dup3\n        /* \"#utility.yul\":10388:10406   */\n      add\n        /* \"#utility.yul\":10380:10406   */\n      swap1\n      pop\n        /* \"#utility.yul\":10452:10461   */\n      dup2\n        /* \"#utility.yul\":10446:10450   */\n      dup2\n        /* \"#utility.yul\":10442:10462   */\n      sub\n        /* \"#utility.yul\":10438:10439   */\n      0x00\n        /* \"#utility.yul\":10427:10436   */\n      dup4\n        /* \"#utility.yul\":10423:10440   */\n      add\n        /* \"#utility.yul\":10416:10463   */\n      mstore\n        /* \"#utility.yul\":10480:10611   */\n      tag_269\n        /* \"#utility.yul\":10606:10610   */\n      dup2\n        /* \"#utility.yul\":10480:10611   */\n      tag_139\n      jump\t// in\n    tag_269:\n        /* \"#utility.yul\":10472:10611   */\n      swap1\n      pop\n        /* \"#utility.yul\":10199:10618   */\n      swap2\n      swap1\n      pop\n      jump\t// out\n        /* \"#utility.yul\":10624:10956   */\n    tag_81:\n        /* \"#utility.yul\":10745:10749   */\n      0x00\n        /* \"#utility.yul\":10783:10785   */\n      0x40\n        /* \"#utility.yul\":10772:10781   */\n      dup3\n        /* \"#utility.yul\":10768:10786   */\n      add\n        /* \"#utility.yul\":10760:10786   */\n      swap1\n      pop\n        /* \"#utility.yul\":10796:10867   */\n      tag_271\n        /* \"#utility.yul\":10864:10865   */\n      0x00\n        /* \"#utility.yul\":10853:10862   */\n      dup4\n        /* \"#utility.yul\":10849:10866   */\n      add\n        /* \"#utility.yul\":10840:10846   */\n      dup6\n        /* \"#utility.yul\":10796:10867   */\n      tag_122\n      jump\t// in\n    tag_271:\n        /* \"#utility.yul\":10877:10949   */\n      tag_272\n        /* \"#utility.yul\":10945:10947   */\n      0x20\n        /* \"#utility.yul\":10934:10943   */\n      dup4\n        /* \"#utility.yul\":10930:10948   */\n      add\n        /* \"#utility.yul\":10921:10927   */\n      dup5\n        /* \"#utility.yul\":10877:10949   */\n      tag_119\n      jump\t// in\n    tag_272:\n        /* \"#utility.yul\":10624:10956   */\n      swap4\n      swap3\n      pop\n      pop\n      pop\n      jump\t// out\n        /* \"#utility.yul\":10962:11079   */\n    tag_140:\n        /* \"#utility.yul\":11071:11072   */\n      0x00\n        /* \"#utility.yul\":11068:11069   */\n      dup1\n        /* \"#utility.yul\":11061:11073   */\n      revert\n        /* \"#utility.yul\":11085:11187   */\n    tag_141:\n        /* \"#utility.yul\":11126:11132   */\n      0x00\n        /* \"#utility.yul\":11177:11179   */\n      0x1f\n        /* \"#utility.yul\":11173:11180   */\n      not\n        /* \"#utility.yul\":11168:11170   */\n      0x1f\n        /* \"#utility.yul\":11161:11166   */\n      dup4\n        /* \"#utility.yul\":11157:11171   */\n      add\n        /* \"#utility.yul\":11153:11181   */\n      and\n        /* \"#utility.yul\":11143:11181   */\n      swap1\n      pop\n        /* \"#utility.yul\":11085:11187   */\n      swap2\n      swap1\n      pop\n      jump\t// out\n        /* \"#utility.yul\":11193:11373   */\n    tag_142:\n        /* \"#utility.yul\":11241:11318   */\n      0x4e487b7100000000000000000000000000000000000000000000000000000000\n        /* \"#utility.yul\":11238:11239   */\n      0x00\n        /* \"#utility.yul\":11231:11319   */\n      mstore\n        /* \"#utility.yul\":11338:11342   */\n      0x41\n        /* \"#utility.yul\":11335:11336   */\n      0x04\n        /* \"#utility.yul\":11328:11343   */\n      mstore\n        /* \"#utility.yul\":11362:11366   */\n      0x24\n        /* \"#utility.yul\":11359:11360   */\n      0x00\n        /* \"#utility.yul\":11352:11367   */\n      revert\n        /* \"#utility.yul\":11379:11660   */\n    tag_143:\n        /* \"#utility.yul\":11462:11489   */\n      tag_277\n        /* \"#utility.yul\":11484:11488   */\n      dup3\n        /* \"#utility.yul\":11462:11489   */\n      tag_141\n      jump\t// in\n    tag_277:\n        /* \"#utility.yul\":11454:11460   */\n      dup2\n        /* \"#utility.yul\":11450:11490   */\n      add\n        /* \"#utility.yul\":11592:11598   */\n      dup2\n        /* \"#utility.yul\":11580:11590   */\n      dup2\n        /* \"#utility.yul\":11577:11599   */\n      lt\n        /* \"#utility.yul\":11556:11574   */\n      0xffffffffffffffff\n        /* \"#utility.yul\":11544:11554   */\n      dup3\n        /* \"#utility.yul\":11541:11575   */\n      gt\n        /* \"#utility.yul\":11538:11600   */\n      or\n        /* \"#utility.yul\":11535:11623   */\n      iszero\n      tag_278\n      jumpi\n        /* \"#utility.yul\":11603:11621   */\n      tag_279\n      tag_142\n      jump\t// in\n    tag_279:\n        /* \"#utility.yul\":11535:11623   */\n    tag_278:\n        /* \"#utility.yul\":11643:11653   */\n      dup1\n        /* \"#utility.yul\":11639:11641   */\n      0x40\n        /* \"#utility.yul\":11632:11654   */\n      mstore\n        /* \"#utility.yul\":11422:11660   */\n      pop\n        /* \"#utility.yul\":11379:11660   */\n      pop\n      pop\n      jump\t// out\n        /* \"#utility.yul\":11666:11795   */\n    tag_144:\n        /* \"#utility.yul\":11700:11706   */\n      0x00\n        /* \"#utility.yul\":11727:11747   */\n      tag_281\n      tag_111\n      jump\t// in\n    tag_281:\n        /* \"#utility.yul\":11717:11747   */\n      swap1\n      pop\n        /* \"#utility.yul\":11756:11789   */\n      tag_282\n        /* \"#utility.yul\":11784:11788   */\n      dup3\n        /* \"#utility.yul\":11776:11782   */\n      dup3\n        /* \"#utility.yul\":11756:11789   */\n      tag_143\n      jump\t// in\n    tag_282:\n        /* \"#utility.yul\":11666:11795   */\n      swap2\n      swap1\n      pop\n      jump\t// out\n        /* \"#utility.yul\":11801:12050   */\n    tag_145:\n        /* \"#utility.yul\":11876:11880   */\n      0x00\n        /* \"#utility.yul\":11966:11984   */\n      0xffffffffffffffff\n        /* \"#utility.yul\":11958:11964   */\n      dup3\n        /* \"#utility.yul\":11955:11985   */\n      gt\n        /* \"#utility.yul\":11952:12008   */\n      iszero\n      tag_284\n      jumpi\n        /* \"#utility.yul\":11988:12006   */\n      tag_285\n      tag_142\n      jump\t// in\n    tag_285:\n        /* \"#utility.yul\":11952:12008   */\n    tag_284:\n        /* \"#utility.yul\":12038:12042   */\n      0x20\n        /* \"#utility.yul\":12030:12036   */\n      dup3\n        /* \"#utility.yul\":12026:12043   */\n      mul\n        /* \"#utility.yul\":12018:12043   */\n      swap1\n      pop\n        /* \"#utility.yul\":11801:12050   */\n      swap2\n      swap1\n      pop\n      jump\t// out\n        /* \"#utility.yul\":12056:12173   */\n    tag_146:\n        /* \"#utility.yul\":12165:12166   */\n      0x00\n        /* \"#utility.yul\":12162:12163   */\n      dup1\n        /* \"#utility.yul\":12155:12167   */\n      revert\n        /* \"#utility.yul\":12179:12322   */\n    tag_147:\n        /* \"#utility.yul\":12236:12241   */\n      0x00\n        /* \"#utility.yul\":12267:12273   */\n      dup2\n        /* \"#utility.yul\":12261:12274   */\n      mload\n        /* \"#utility.yul\":12252:12274   */\n      swap1\n      pop\n        /* \"#utility.yul\":12283:12316   */\n      tag_288\n        /* \"#utility.yul\":12310:12315   */\n      dup2\n        /* \"#utility.yul\":12283:12316   */\n      tag_116\n      jump\t// in\n    tag_288:\n        /* \"#utility.yul\":12179:12322   */\n      swap3\n      swap2\n      pop\n      pop\n      jump\t// out\n        /* \"#utility.yul\":12346:13011   */\n    tag_148:\n        /* \"#utility.yul\":12451:12456   */\n      0x00\n        /* \"#utility.yul\":12476:12555   */\n      tag_290\n        /* \"#utility.yul\":12492:12554   */\n      tag_291\n        /* \"#utility.yul\":12547:12553   */\n      dup5\n        /* \"#utility.yul\":12492:12554   */\n      tag_145\n      jump\t// in\n    tag_291:\n        /* \"#utility.yul\":12476:12555   */\n      tag_144\n      jump\t// in\n    tag_290:\n        /* \"#utility.yul\":12467:12555   */\n      swap1\n      pop\n        /* \"#utility.yul\":12575:12580   */\n      dup1\n        /* \"#utility.yul\":12628:12632   */\n      0x20\n        /* \"#utility.yul\":12620:12626   */\n      dup5\n        /* \"#utility.yul\":12616:12633   */\n      mul\n        /* \"#utility.yul\":12608:12614   */\n      dup4\n        /* \"#utility.yul\":12604:12634   */\n      add\n        /* \"#utility.yul\":12657:12660   */\n      dup6\n        /* \"#utility.yul\":12649:12655   */\n      dup2\n        /* \"#utility.yul\":12646:12661   */\n      gt\n        /* \"#utility.yul\":12643:12765   */\n      iszero\n      tag_292\n      jumpi\n        /* \"#utility.yul\":12676:12755   */\n      tag_293\n      tag_146\n      jump\t// in\n    tag_293:\n        /* \"#utility.yul\":12643:12765   */\n    tag_292:\n        /* \"#utility.yul\":12791:12797   */\n      dup4\n        /* \"#utility.yul\":12774:13005   */\n    tag_294:\n        /* \"#utility.yul\":12808:12814   */\n      dup2\n        /* \"#utility.yul\":12803:12806   */\n      dup2\n        /* \"#utility.yul\":12800:12815   */\n      lt\n        /* \"#utility.yul\":12774:13005   */\n      iszero\n      tag_296\n      jumpi\n        /* \"#utility.yul\":12883:12886   */\n      dup1\n        /* \"#utility.yul\":12912:12960   */\n      tag_297\n        /* \"#utility.yul\":12956:12959   */\n      dup9\n        /* \"#utility.yul\":12944:12954   */\n      dup3\n        /* \"#utility.yul\":12912:12960   */\n      tag_147\n      jump\t// in\n    tag_297:\n        /* \"#utility.yul\":12907:12910   */\n      dup5\n        /* \"#utility.yul\":12900:12961   */\n      mstore\n        /* \"#utility.yul\":12990:12994   */\n      0x20\n        /* \"#utility.yul\":12985:12988   */\n      dup5\n        /* \"#utility.yul\":12981:12995   */\n      add\n        /* \"#utility.yul\":12974:12995   */\n      swap4\n      pop\n        /* \"#utility.yul\":12850:13005   */\n      pop\n        /* \"#utility.yul\":12834:12838   */\n      0x20\n        /* \"#utility.yul\":12829:12832   */\n      dup2\n        /* \"#utility.yul\":12825:12839   */\n      add\n        /* \"#utility.yul\":12818:12839   */\n      swap1\n      pop\n        /* \"#utility.yul\":12774:13005   */\n      jump(tag_294)\n    tag_296:\n        /* \"#utility.yul\":12778:12799   */\n      pop\n        /* \"#utility.yul\":12457:13011   */\n      pop\n      pop\n        /* \"#utility.yul\":12346:13011   */\n      swap4\n      swap3\n      pop\n      pop\n      pop\n      jump\t// out\n        /* \"#utility.yul\":13035:13396   */\n    tag_149:\n        /* \"#utility.yul\":13115:13120   */\n      0x00\n        /* \"#utility.yul\":13164:13167   */\n      dup3\n        /* \"#utility.yul\":13157:13161   */\n      0x1f\n        /* \"#utility.yul\":13149:13155   */\n      dup4\n        /* \"#utility.yul\":13145:13162   */\n      add\n        /* \"#utility.yul\":13141:13168   */\n      slt\n        /* \"#utility.yul\":13131:13253   */\n      tag_299\n      jumpi\n        /* \"#utility.yul\":13172:13251   */\n      tag_300\n      tag_140\n      jump\t// in\n    tag_300:\n        /* \"#utility.yul\":13131:13253   */\n    tag_299:\n        /* \"#utility.yul\":13276:13280   */\n      0x04\n        /* \"#utility.yul\":13298:13390   */\n      tag_301\n        /* \"#utility.yul\":13386:13389   */\n      dup5\n        /* \"#utility.yul\":13378:13384   */\n      dup3\n        /* \"#utility.yul\":13370:13376   */\n      dup6\n        /* \"#utility.yul\":13298:13390   */\n      tag_148\n      jump\t// in\n    tag_301:\n        /* \"#utility.yul\":13289:13390   */\n      swap2\n      pop\n        /* \"#utility.yul\":13121:13396   */\n      pop\n        /* \"#utility.yul\":13035:13396   */\n      swap3\n      swap2\n      pop\n      pop\n      jump\t// out\n        /* \"#utility.yul\":13402:13800   */\n    tag_91:\n        /* \"#utility.yul\":13495:13501   */\n      0x00\n        /* \"#utility.yul\":13544:13547   */\n      0x80\n        /* \"#utility.yul\":13532:13541   */\n      dup3\n        /* \"#utility.yul\":13523:13530   */\n      dup5\n        /* \"#utility.yul\":13519:13542   */\n      sub\n        /* \"#utility.yul\":13515:13548   */\n      slt\n        /* \"#utility.yul\":13512:13632   */\n      iszero\n      tag_303\n      jumpi\n        /* \"#utility.yul\":13551:13630   */\n      tag_304\n      tag_112\n      jump\t// in\n    tag_304:\n        /* \"#utility.yul\":13512:13632   */\n    tag_303:\n        /* \"#utility.yul\":13671:13672   */\n      0x00\n        /* \"#utility.yul\":13696:13783   */\n      tag_305\n        /* \"#utility.yul\":13775:13782   */\n      dup5\n        /* \"#utility.yul\":13766:13772   */\n      dup3\n        /* \"#utility.yul\":13755:13764   */\n      dup6\n        /* \"#utility.yul\":13751:13773   */\n      add\n        /* \"#utility.yul\":13696:13783   */\n      tag_149\n      jump\t// in\n    tag_305:\n        /* \"#utility.yul\":13686:13783   */\n      swap2\n      pop\n        /* \"#utility.yul\":13642:13793   */\n      pop\n        /* \"#utility.yul\":13402:13800   */\n      swap3\n      swap2\n      pop\n      pop\n      jump\t// out\n        /* \"#utility.yul\":13806:13986   */\n    tag_94:\n        /* \"#utility.yul\":13854:13931   */\n      0x4e487b7100000000000000000000000000000000000000000000000000000000\n        /* \"#utility.yul\":13851:13852   */\n      0x00\n        /* \"#utility.yul\":13844:13932   */\n      mstore\n        /* \"#utility.yul\":13951:13955   */\n      0x32\n        /* \"#utility.yul\":13948:13949   */\n      0x04\n        /* \"#utility.yul\":13941:13956   */\n      mstore\n        /* \"#utility.yul\":13975:13979   */\n      0x24\n        /* \"#utility.yul\":13972:13973   */\n      0x00\n        /* \"#utility.yul\":13965:13980   */\n      revert\n        /* \"#utility.yul\":13992:14096   */\n    tag_150:\n        /* \"#utility.yul\":14057:14063   */\n      0x00\n        /* \"#utility.yul\":14085:14089   */\n      0x04\n        /* \"#utility.yul\":14075:14089   */\n      swap1\n      pop\n        /* \"#utility.yul\":13992:14096   */\n      swap2\n      swap1\n      pop\n      jump\t// out\n        /* \"#utility.yul\":14102:14245   */\n    tag_151:\n        /* \"#utility.yul\":14199:14210   */\n      0x00\n        /* \"#utility.yul\":14236:14239   */\n      dup2\n        /* \"#utility.yul\":14221:14239   */\n      swap1\n      pop\n        /* \"#utility.yul\":14102:14245   */\n      swap3\n      swap2\n      pop\n      pop\n      jump\t// out\n        /* \"#utility.yul\":14251:14349   */\n    tag_152:\n        /* \"#utility.yul\":14316:14320   */\n      0x00\n        /* \"#utility.yul\":14339:14342   */\n      dup2\n        /* \"#utility.yul\":14331:14342   */\n      swap1\n      pop\n        /* \"#utility.yul\":14251:14349   */\n      swap2\n      swap1\n      pop\n      jump\t// out\n        /* \"#utility.yul\":14355:14463   */\n    tag_153:\n        /* \"#utility.yul\":14432:14456   */\n      tag_311\n        /* \"#utility.yul\":14450:14455   */\n      dup2\n        /* \"#utility.yul\":14432:14456   */\n      tag_115\n      jump\t// in\n    tag_311:\n        /* \"#utility.yul\":14427:14430   */\n      dup3\n        /* \"#utility.yul\":14420:14457   */\n      mstore\n        /* \"#utility.yul\":14355:14463   */\n      pop\n      pop\n      jump\t// out\n        /* \"#utility.yul\":14469:14648   */\n    tag_154:\n        /* \"#utility.yul\":14538:14548   */\n      0x00\n        /* \"#utility.yul\":14559:14605   */\n      tag_313\n        /* \"#utility.yul\":14601:14604   */\n      dup4\n        /* \"#utility.yul\":14593:14599   */\n      dup4\n        /* \"#utility.yul\":14559:14605   */\n      tag_153\n      jump\t// in\n    tag_313:\n        /* \"#utility.yul\":14637:14641   */\n      0x20\n        /* \"#utility.yul\":14632:14635   */\n      dup4\n        /* \"#utility.yul\":14628:14642   */\n      add\n        /* \"#utility.yul\":14614:14642   */\n      swap1\n      pop\n        /* \"#utility.yul\":14469:14648   */\n      swap3\n      swap2\n      pop\n      pop\n      jump\t// out\n        /* \"#utility.yul\":14654:14765   */\n    tag_155:\n        /* \"#utility.yul\":14722:14726   */\n      0x00\n        /* \"#utility.yul\":14754:14758   */\n      0x20\n        /* \"#utility.yul\":14749:14752   */\n      dup3\n        /* \"#utility.yul\":14745:14759   */\n      add\n        /* \"#utility.yul\":14737:14759   */\n      swap1\n      pop\n        /* \"#utility.yul\":14654:14765   */\n      swap2\n      swap1\n      pop\n      jump\t// out\n        /* \"#utility.yul\":14803:15497   */\n    tag_156:\n        /* \"#utility.yul\":14939:14991   */\n      tag_316\n        /* \"#utility.yul\":14985:14990   */\n      dup2\n        /* \"#utility.yul\":14939:14991   */\n      tag_150\n      jump\t// in\n    tag_316:\n        /* \"#utility.yul\":15007:15091   */\n      tag_317\n        /* \"#utility.yul\":15084:15090   */\n      dup2\n        /* \"#utility.yul\":15079:15082   */\n      dup5\n        /* \"#utility.yul\":15007:15091   */\n      tag_151\n      jump\t// in\n    tag_317:\n        /* \"#utility.yul\":15000:15091   */\n      swap3\n      pop\n        /* \"#utility.yul\":15115:15169   */\n      tag_318\n        /* \"#utility.yul\":15163:15168   */\n      dup3\n        /* \"#utility.yul\":15115:15169   */\n      tag_152\n      jump\t// in\n    tag_318:\n        /* \"#utility.yul\":15192:15199   */\n      dup1\n        /* \"#utility.yul\":15223:15224   */\n      0x00\n        /* \"#utility.yul\":15208:15490   */\n    tag_319:\n        /* \"#utility.yul\":15233:15239   */\n      dup4\n        /* \"#utility.yul\":15230:15231   */\n      dup2\n        /* \"#utility.yul\":15227:15240   */\n      lt\n        /* \"#utility.yul\":15208:15490   */\n      iszero\n      tag_321\n      jumpi\n        /* \"#utility.yul\":15309:15315   */\n      dup2\n        /* \"#utility.yul\":15303:15316   */\n      mload\n        /* \"#utility.yul\":15336:15399   */\n      tag_322\n        /* \"#utility.yul\":15395:15398   */\n      dup8\n        /* \"#utility.yul\":15380:15393   */\n      dup3\n        /* \"#utility.yul\":15336:15399   */\n      tag_154\n      jump\t// in\n    tag_322:\n        /* \"#utility.yul\":15329:15399   */\n      swap7\n      pop\n        /* \"#utility.yul\":15422:15480   */\n      tag_323\n        /* \"#utility.yul\":15473:15479   */\n      dup4\n        /* \"#utility.yul\":15422:15480   */\n      tag_155\n      jump\t// in\n    tag_323:\n        /* \"#utility.yul\":15412:15480   */\n      swap3\n      pop\n        /* \"#utility.yul\":15268:15490   */\n      pop\n        /* \"#utility.yul\":15255:15256   */\n      0x01\n        /* \"#utility.yul\":15252:15253   */\n      dup2\n        /* \"#utility.yul\":15248:15257   */\n      add\n        /* \"#utility.yul\":15243:15257   */\n      swap1\n      pop\n        /* \"#utility.yul\":15208:15490   */\n      jump(tag_319)\n    tag_321:\n        /* \"#utility.yul\":15212:15226   */\n      pop\n        /* \"#utility.yul\":14915:15497   */\n      pop\n      pop\n      pop\n        /* \"#utility.yul\":14803:15497   */\n      pop\n      pop\n      jump\t// out\n        /* \"#utility.yul\":15503:16248   */\n    tag_103:\n        /* \"#utility.yul\":15748:15752   */\n      0x00\n        /* \"#utility.yul\":15786:15789   */\n      0x0100\n        /* \"#utility.yul\":15775:15784   */\n      dup3\n        /* \"#utility.yul\":15771:15790   */\n      add\n        /* \"#utility.yul\":15763:15790   */\n      swap1\n      pop\n        /* \"#utility.yul\":15800:15871   */\n      tag_325\n        /* \"#utility.yul\":15868:15869   */\n      0x00\n        /* \"#utility.yul\":15857:15866   */\n      dup4\n        /* \"#utility.yul\":15853:15870   */\n      add\n        /* \"#utility.yul\":15844:15850   */\n      dup9\n        /* \"#utility.yul\":15800:15871   */\n      tag_122\n      jump\t// in\n    tag_325:\n        /* \"#utility.yul\":15881:15953   */\n      tag_326\n        /* \"#utility.yul\":15949:15951   */\n      0x20\n        /* \"#utility.yul\":15938:15947   */\n      dup4\n        /* \"#utility.yul\":15934:15952   */\n      add\n        /* \"#utility.yul\":15925:15931   */\n      dup8\n        /* \"#utility.yul\":15881:15953   */\n      tag_122\n      jump\t// in\n    tag_326:\n        /* \"#utility.yul\":15963:16081   */\n      tag_327\n        /* \"#utility.yul\":16077:16079   */\n      0x40\n        /* \"#utility.yul\":16066:16075   */\n      dup4\n        /* \"#utility.yul\":16062:16080   */\n      add\n        /* \"#utility.yul\":16053:16059   */\n      dup7\n        /* \"#utility.yul\":15963:16081   */\n      tag_156\n      jump\t// in\n    tag_327:\n        /* \"#utility.yul\":16091:16164   */\n      tag_328\n        /* \"#utility.yul\":16159:16162   */\n      0xc0\n        /* \"#utility.yul\":16148:16157   */\n      dup4\n        /* \"#utility.yul\":16144:16163   */\n      add\n        /* \"#utility.yul\":16135:16141   */\n      dup6\n        /* \"#utility.yul\":16091:16164   */\n      tag_119\n      jump\t// in\n    tag_328:\n        /* \"#utility.yul\":16174:16241   */\n      tag_329\n        /* \"#utility.yul\":16236:16239   */\n      0xe0\n        /* \"#utility.yul\":16225:16234   */\n      dup4\n        /* \"#utility.yul\":16221:16240   */\n      add\n        /* \"#utility.yul\":16212:16218   */\n      dup5\n        /* \"#utility.yul\":16174:16241   */\n      tag_137\n      jump\t// in\n    tag_329:\n        /* \"#utility.yul\":15503:16248   */\n      swap7\n      swap6\n      pop\n      pop\n      pop\n      pop\n      pop\n      pop\n      jump\t// out\n\n    auxdata: 0xa2646970667358221220d47c1f57ab54c5e7c070e7632dc7910313a31c62edd055a7df9d839c1f41c88e64736f6c634300081a0033\n}\n",
				"bytecode": {
					"linkReferences": {},
					"object": "608060405234801561001057600080fd5b5060405161176f38038061176f8339818101604052810190610032919061015e565b816000806101000a81548173ffffffffffffffffffffffffffffffffffffffff021916908373ffffffffffffffffffffffffffffffffffffffff16021790555080600160006101000a81548173ffffffffffffffffffffffffffffffffffffffff021916908373ffffffffffffffffffffffffffffffffffffffff16021790555081600260006101000a81548173ffffffffffffffffffffffffffffffffffffffff021916908373ffffffffffffffffffffffffffffffffffffffff160217905550505061019e565b600080fd5b600073ffffffffffffffffffffffffffffffffffffffff82169050919050565b600061012b82610100565b9050919050565b61013b81610120565b811461014657600080fd5b50565b60008151905061015881610132565b92915050565b60008060408385031215610175576101746100fb565b5b600061018385828601610149565b925050602061019485828601610149565b9150509250929050565b6115c2806101ad6000396000f3fe608060405234801561001057600080fd5b50600436106100885760003560e01c8063925dcd9d1161005b578063925dcd9d14610111578063e58ef8a81461012d578063fa52c7d814610149578063fc0c546a1461017957610088565b806327e235e31461008d5780633756f786146100bd5780634668a40c146100d95780636a37e3fe146100f5575b600080fd5b6100a760048036038101906100a29190610d7d565b610197565b6040516100b49190610dc3565b60405180910390f35b6100d760048036038101906100d29190610e0a565b6101af565b005b6100f360048036038101906100ee9190610e4a565b610458565b005b61010f600480360381019061010a9190610e0a565b61067e565b005b61012b60048036038101906101269190610e4a565b610907565b005b61014760048036038101906101429190610e8a565b610bd5565b005b610163600480360381019061015e9190610d7d565b610cb9565b6040516101709190610eec565b60405180910390f35b610181610cec565b60405161018e9190610f66565b60405180910390f35b60036020528060005260406000206000915090505481565b3373ffffffffffffffffffffffffffffffffffffffff16600460008473ffffffffffffffffffffffffffffffffffffffff1673ffffffffffffffffffffffffffffffffffffffff16815260200190815260200160002060009054906101000a900473ffffffffffffffffffffffffffffffffffffffff1673ffffffffffffffffffffffffffffffffffffffff161461024657600080fd5b80600360003373ffffffffffffffffffffffffffffffffffffffff1673ffffffffffffffffffffffffffffffffffffffff1681526020019081526020016000205410156102c8576040517f08c379a00000000000000000000000000000000000000000000000000000000081526004016102bf90610fde565b60405180910390fd5b80600360003373ffffffffffffffffffffffffffffffffffffffff1673ffffffffffffffffffffffffffffffffffffffff1681526020019081526020016000206000828254610317919061102d565b9250508190555060008060009054906101000a900473ffffffffffffffffffffffffffffffffffffffff1673ffffffffffffffffffffffffffffffffffffffff166323b872dd3385856040518463ffffffff1660e01b815260040161037e93929190611061565b6020604051808303816000875af115801561039d573d6000803e3d6000fd5b505050506040513d601f19601f820116820180604052508101906103c191906110d0565b905080610403576040517f08c379a00000000000000000000000000000000000000000000000000000000081526004016103fa90611149565b60405180910390fd5b3373ffffffffffffffffffffffffffffffffffffffff167fbef9b5de8f3d26f5404dfa991d716facb06b43a40c59c2972953eaca76f82619838360405161044b929190611178565b60405180910390a2505050565b60007328e2b18a77c9968a74baac3caec4ffcfe195ac62905060008054906101000a900473ffffffffffffffffffffffffffffffffffffffff1673ffffffffffffffffffffffffffffffffffffffff166323b872dd3383866040518463ffffffff1660e01b81526004016104ce93929190611061565b6020604051808303816000875af11580156104ed573d6000803e3d6000fd5b505050506040513d601f19601f8201168201806040525081019061051191906110d0565b610550576040517f08c379a000000000000000000000000000000000000000000000000000000000815260040161054790611149565b60405180910390fd5b82600360003373ffffffffffffffffffffffffffffffffffffffff1673ffffffffffffffffffffffffffffffffffffffff168152602001908152602001600020600082825461059f91906111a1565b9250508190555080600460003373ffffffffffffffffffffffffffffffffffffffff1673ffffffffffffffffffffffffffffffffffffffff16815260200190815260200160002060006101000a81548173ffffffffffffffffffffffffffffffffffffffff021916908373ffffffffffffffffffffffffffffffffffffffff1602179055503373ffffffffffffffffffffffffffffffffffffffff167f5ca2aba0cecf0783a090e6862bb44f029273ab9274b1b8763de309732621e2a1838386600160405161067194939291906111d5565b60405180910390a2505050565b3373ffffffffffffffffffffffffffffffffffffffff16600460008473ffffffffffffffffffffffffffffffffffffffff1673ffffffffffffffffffffffffffffffffffffffff16815260200190815260200160002060009054906101000a900473ffffffffffffffffffffffffffffffffffffffff1673ffffffffffffffffffffffffffffffffffffffff161461074b576040517f08c379a00000000000000000000000000000000000000000000000000000000081526004016107429061128c565b60405180910390fd5b80600360008473ffffffffffffffffffffffffffffffffffffffff1673ffffffffffffffffffffffffffffffffffffffff1681526020019081526020016000205410156107cd576040517f08c379a00000000000000000000000000000000000000000000000000000000081526004016107c490610fde565b60405180910390fd5b600260009054906101000a900473ffffffffffffffffffffffffffffffffffffffff1673ffffffffffffffffffffffffffffffffffffffff166379cc679033836040518363ffffffff1660e01b815260040161082a9291906112ac565b600060405180830381600087803b15801561084457600080fd5b505af1158015610858573d6000803e3d6000fd5b5050505080600360008473ffffffffffffffffffffffffffffffffffffffff1673ffffffffffffffffffffffffffffffffffffffff16815260200190815260200160002060008282546108ab919061102d565b925050819055508173ffffffffffffffffffffffffffffffffffffffff167f2a62a476b1f2333c3e337e119e3924e874c5d2d46e4ba97594d2635f3bbee7fd8260016040516108fb929190611178565b60405180910390a25050565b6000600160009054906101000a900473ffffffffffffffffffffffffffffffffffffffff16905060008173ffffffffffffffffffffffffffffffffffffffff16634620f3d56040518163ffffffff1660e01b8152600401608060405180830381865afa15801561097b573d6000803e3d6000fd5b505050506040513d601f19601f8201168201806040525081019061099f9190611431565b90506000816001600481106109b7576109b661145e565b5b6020020151905060008060009054906101000a900473ffffffffffffffffffffffffffffffffffffffff1673ffffffffffffffffffffffffffffffffffffffff166323b872dd3330896040518463ffffffff1660e01b8152600401610a1e93929190611061565b6020604051808303816000875af1158015610a3d573d6000803e3d6000fd5b505050506040513d601f19601f82011682018060405250810190610a6191906110d0565b905080610aa3576040517f08c379a0000000000000000000000000000000000000000000000000000000008152600401610a9a90611149565b60405180910390fd5b85600360003373ffffffffffffffffffffffffffffffffffffffff1673ffffffffffffffffffffffffffffffffffffffff1681526020019081526020016000206000828254610af291906111a1565b9250508190555081600460003373ffffffffffffffffffffffffffffffffffffffff1673ffffffffffffffffffffffffffffffffffffffff16815260200190815260200160002060006101000a81548173ffffffffffffffffffffffffffffffffffffffff021916908373ffffffffffffffffffffffffffffffffffffffff1602179055503373ffffffffffffffffffffffffffffffffffffffff167f6ed60208bd8249a7558dbe8070c8a4fec80c48bcc0606e7b88f916a601e5c8448684868a86604051610bc5959493929190611538565b60405180910390a2505050505050565b60008054906101000a900473ffffffffffffffffffffffffffffffffffffffff1673ffffffffffffffffffffffffffffffffffffffff166323b872dd8484846040518463ffffffff1660e01b8152600401610c3293929190611061565b6020604051808303816000875af1158015610c51573d6000803e3d6000fd5b505050506040513d601f19601f82011682018060405250810190610c7591906110d0565b610cb4576040517f08c379a0000000000000000000000000000000000000000000000000000000008152600401610cab90611149565b60405180910390fd5b505050565b60046020528060005260406000206000915054906101000a900473ffffffffffffffffffffffffffffffffffffffff1681565b60008054906101000a900473ffffffffffffffffffffffffffffffffffffffff1681565b6000604051905090565b600080fd5b600073ffffffffffffffffffffffffffffffffffffffff82169050919050565b6000610d4a82610d1f565b9050919050565b610d5a81610d3f565b8114610d6557600080fd5b50565b600081359050610d7781610d51565b92915050565b600060208284031215610d9357610d92610d1a565b5b6000610da184828501610d68565b91505092915050565b6000819050919050565b610dbd81610daa565b82525050565b6000602082019050610dd86000830184610db4565b92915050565b610de781610daa565b8114610df257600080fd5b50565b600081359050610e0481610dde565b92915050565b60008060408385031215610e2157610e20610d1a565b5b6000610e2f85828601610d68565b9250506020610e4085828601610df5565b9150509250929050565b60008060408385031215610e6157610e60610d1a565b5b6000610e6f85828601610df5565b9250506020610e8085828601610d68565b9150509250929050565b600080600060608486031215610ea357610ea2610d1a565b5b6000610eb186828701610d68565b9350506020610ec286828701610d68565b9250506040610ed386828701610df5565b9150509250925092565b610ee681610d3f565b82525050565b6000602082019050610f016000830184610edd565b92915050565b6000819050919050565b6000610f2c610f27610f2284610d1f565b610f07565b610d1f565b9050919050565b6000610f3e82610f11565b9050919050565b6000610f5082610f33565b9050919050565b610f6081610f45565b82525050565b6000602082019050610f7b6000830184610f57565b92915050565b600082825260208201905092915050565b7f496e73756666696369656e742062616c616e6365000000000000000000000000600082015250565b6000610fc8601483610f81565b9150610fd382610f92565b602082019050919050565b60006020820190508181036000830152610ff781610fbb565b9050919050565b7f4e487b7100000000000000000000000000000000000000000000000000000000600052601160045260246000fd5b600061103882610daa565b915061104383610daa565b925082820390508181111561105b5761105a610ffe565b5b92915050565b60006060820190506110766000830186610edd565b6110836020830185610edd565b6110906040830184610db4565b949350505050565b60008115159050919050565b6110ad81611098565b81146110b857600080fd5b50565b6000815190506110ca816110a4565b92915050565b6000602082840312156110e6576110e5610d1a565b5b60006110f4848285016110bb565b91505092915050565b7f5472616e73666572206661696c65640000000000000000000000000000000000600082015250565b6000611133600f83610f81565b915061113e826110fd565b602082019050919050565b6000602082019050818103600083015261116281611126565b9050919050565b61117281611098565b82525050565b600060408201905061118d6000830185610db4565b61119a6020830184611169565b9392505050565b60006111ac82610daa565b91506111b783610daa565b92508282019050808211156111cf576111ce610ffe565b5b92915050565b60006080820190506111ea6000830187610edd565b6111f76020830186610edd565b6112046040830185610db4565b6112116060830184611169565b95945050505050565b7f4f6e6c79207468652064657369676e617465642076616c696461746f7220636160008201527f6e20706572666f726d207468697320616374696f6e0000000000000000000000602082015250565b6000611276603583610f81565b91506112818261121a565b604082019050919050565b600060208201905081810360008301526112a581611269565b9050919050565b60006040820190506112c16000830185610edd565b6112ce6020830184610db4565b9392505050565b600080fd5b6000601f19601f8301169050919050565b7f4e487b7100000000000000000000000000000000000000000000000000000000600052604160045260246000fd5b611323826112da565b810181811067ffffffffffffffff82111715611342576113416112eb565b5b80604052505050565b6000611355610d10565b9050611361828261131a565b919050565b600067ffffffffffffffff821115611381576113806112eb565b5b602082029050919050565b600080fd5b6000815190506113a081610d51565b92915050565b60006113b96113b484611366565b61134b565b905080602084028301858111156113d3576113d261138c565b5b835b818110156113fc57806113e88882611391565b8452602084019350506020810190506113d5565b5050509392505050565b600082601f83011261141b5761141a6112d5565b5b60046114288482856113a6565b91505092915050565b60006080828403121561144757611446610d1a565b5b600061145584828501611406565b91505092915050565b7f4e487b7100000000000000000000000000000000000000000000000000000000600052603260045260246000fd5b600060049050919050565b600081905092915050565b6000819050919050565b6114b681610d3f565b82525050565b60006114c883836114ad565b60208301905092915050565b6000602082019050919050565b6114ea8161148d565b6114f48184611498565b92506114ff826114a3565b8060005b8381101561153057815161151787826114bc565b9650611522836114d4565b925050600181019050611503565b505050505050565b60006101008201905061154e6000830188610edd565b61155b6020830187610edd565b61156860408301866114e1565b61157560c0830185610db4565b61158260e0830184611169565b969550505050505056fea2646970667358221220d47c1f57ab54c5e7c070e7632dc7910313a31c62edd055a7df9d839c1f41c88e64736f6c634300081a0033",
					"opcodes": "PUSH1 0x80 PUSH1 0x40 MSTORE CALLVALUE DUP1 ISZERO PUSH2 0x10 JUMPI PUSH1 0x0 DUP1 REVERT JUMPDEST POP PUSH1 0x40 MLOAD PUSH2 0x176F CODESIZE SUB DUP1 PUSH2 0x176F DUP4 CODECOPY DUP2 DUP2 ADD PUSH1 0x40 MSTORE DUP2 ADD SWAP1 PUSH2 0x32 SWAP2 SWAP1 PUSH2 0x15E JUMP JUMPDEST DUP2 PUSH1 0x0 DUP1 PUSH2 0x100 EXP DUP2 SLOAD DUP2 PUSH20 0xFFFFFFFFFFFFFFFFFFFFFFFFFFFFFFFFFFFFFFFF MUL NOT AND SWAP1 DUP4 PUSH20 0xFFFFFFFFFFFFFFFFFFFFFFFFFFFFFFFFFFFFFFFF AND MUL OR SWAP1 SSTORE POP DUP1 PUSH1 0x1 PUSH1 0x0 PUSH2 0x100 EXP DUP2 SLOAD DUP2 PUSH20 0xFFFFFFFFFFFFFFFFFFFFFFFFFFFFFFFFFFFFFFFF MUL NOT AND SWAP1 DUP4 PUSH20 0xFFFFFFFFFFFFFFFFFFFFFFFFFFFFFFFFFFFFFFFF AND MUL OR SWAP1 SSTORE POP DUP2 PUSH1 0x2 PUSH1 0x0 PUSH2 0x100 EXP DUP2 SLOAD DUP2 PUSH20 0xFFFFFFFFFFFFFFFFFFFFFFFFFFFFFFFFFFFFFFFF MUL NOT AND SWAP1 DUP4 PUSH20 0xFFFFFFFFFFFFFFFFFFFFFFFFFFFFFFFFFFFFFFFF AND MUL OR SWAP1 SSTORE POP POP POP PUSH2 0x19E JUMP JUMPDEST PUSH1 0x0 DUP1 REVERT JUMPDEST PUSH1 0x0 PUSH20 0xFFFFFFFFFFFFFFFFFFFFFFFFFFFFFFFFFFFFFFFF DUP3 AND SWAP1 POP SWAP2 SWAP1 POP JUMP JUMPDEST PUSH1 0x0 PUSH2 0x12B DUP3 PUSH2 0x100 JUMP JUMPDEST SWAP1 POP SWAP2 SWAP1 POP JUMP JUMPDEST PUSH2 0x13B DUP2 PUSH2 0x120 JUMP JUMPDEST DUP2 EQ PUSH2 0x146 JUMPI PUSH1 0x0 DUP1 REVERT JUMPDEST POP JUMP JUMPDEST PUSH1 0x0 DUP2 MLOAD SWAP1 POP PUSH2 0x158 DUP2 PUSH2 0x132 JUMP JUMPDEST SWAP3 SWAP2 POP POP JUMP JUMPDEST PUSH1 0x0 DUP1 PUSH1 0x40 DUP4 DUP6 SUB SLT ISZERO PUSH2 0x175 JUMPI PUSH2 0x174 PUSH2 0xFB JUMP JUMPDEST JUMPDEST PUSH1 0x0 PUSH2 0x183 DUP6 DUP3 DUP7 ADD PUSH2 0x149 JUMP JUMPDEST SWAP3 POP POP PUSH1 0x20 PUSH2 0x194 DUP6 DUP3 DUP7 ADD PUSH2 0x149 JUMP JUMPDEST SWAP2 POP POP SWAP3 POP SWAP3 SWAP1 POP JUMP JUMPDEST PUSH2 0x15C2 DUP1 PUSH2 0x1AD PUSH1 0x0 CODECOPY PUSH1 0x0 RETURN INVALID PUSH1 0x80 PUSH1 0x40 MSTORE CALLVALUE DUP1 ISZERO PUSH2 0x10 JUMPI PUSH1 0x0 DUP1 REVERT JUMPDEST POP PUSH1 0x4 CALLDATASIZE LT PUSH2 0x88 JUMPI PUSH1 0x0 CALLDATALOAD PUSH1 0xE0 SHR DUP1 PUSH4 0x925DCD9D GT PUSH2 0x5B JUMPI DUP1 PUSH4 0x925DCD9D EQ PUSH2 0x111 JUMPI DUP1 PUSH4 0xE58EF8A8 EQ PUSH2 0x12D JUMPI DUP1 PUSH4 0xFA52C7D8 EQ PUSH2 0x149 JUMPI DUP1 PUSH4 0xFC0C546A EQ PUSH2 0x179 JUMPI PUSH2 0x88 JUMP JUMPDEST DUP1 PUSH4 0x27E235E3 EQ PUSH2 0x8D JUMPI DUP1 PUSH4 0x3756F786 EQ PUSH2 0xBD JUMPI DUP1 PUSH4 0x4668A40C EQ PUSH2 0xD9 JUMPI DUP1 PUSH4 0x6A37E3FE EQ PUSH2 0xF5 JUMPI JUMPDEST PUSH1 0x0 DUP1 REVERT JUMPDEST PUSH2 0xA7 PUSH1 0x4 DUP1 CALLDATASIZE SUB DUP2 ADD SWAP1 PUSH2 0xA2 SWAP2 SWAP1 PUSH2 0xD7D JUMP JUMPDEST PUSH2 0x197 JUMP JUMPDEST PUSH1 0x40 MLOAD PUSH2 0xB4 SWAP2 SWAP1 PUSH2 0xDC3 JUMP JUMPDEST PUSH1 0x40 MLOAD DUP1 SWAP2 SUB SWAP1 RETURN JUMPDEST PUSH2 0xD7 PUSH1 0x4 DUP1 CALLDATASIZE SUB DUP2 ADD SWAP1 PUSH2 0xD2 SWAP2 SWAP1 PUSH2 0xE0A JUMP JUMPDEST PUSH2 0x1AF JUMP JUMPDEST STOP JUMPDEST PUSH2 0xF3 PUSH1 0x4 DUP1 CALLDATASIZE SUB DUP2 ADD SWAP1 PUSH2 0xEE SWAP2 SWAP1 PUSH2 0xE4A JUMP JUMPDEST PUSH2 0x458 JUMP JUMPDEST STOP JUMPDEST PUSH2 0x10F PUSH1 0x4 DUP1 CALLDATASIZE SUB DUP2 ADD SWAP1 PUSH2 0x10A SWAP2 SWAP1 PUSH2 0xE0A JUMP JUMPDEST PUSH2 0x67E JUMP JUMPDEST STOP JUMPDEST PUSH2 0x12B PUSH1 0x4 DUP1 CALLDATASIZE SUB DUP2 ADD SWAP1 PUSH2 0x126 SWAP2 SWAP1 PUSH2 0xE4A JUMP JUMPDEST PUSH2 0x907 JUMP JUMPDEST STOP JUMPDEST PUSH2 0x147 PUSH1 0x4 DUP1 CALLDATASIZE SUB DUP2 ADD SWAP1 PUSH2 0x142 SWAP2 SWAP1 PUSH2 0xE8A JUMP JUMPDEST PUSH2 0xBD5 JUMP JUMPDEST STOP JUMPDEST PUSH2 0x163 PUSH1 0x4 DUP1 CALLDATASIZE SUB DUP2 ADD SWAP1 PUSH2 0x15E SWAP2 SWAP1 PUSH2 0xD7D JUMP JUMPDEST PUSH2 0xCB9 JUMP JUMPDEST PUSH1 0x40 MLOAD PUSH2 0x170 SWAP2 SWAP1 PUSH2 0xEEC JUMP JUMPDEST PUSH1 0x40 MLOAD DUP1 SWAP2 SUB SWAP1 RETURN JUMPDEST PUSH2 0x181 PUSH2 0xCEC JUMP JUMPDEST PUSH1 0x40 MLOAD PUSH2 0x18E SWAP2 SWAP1 PUSH2 0xF66 JUMP JUMPDEST PUSH1 0x40 MLOAD DUP1 SWAP2 SUB SWAP1 RETURN JUMPDEST PUSH1 0x3 PUSH1 0x20 MSTORE DUP1 PUSH1 0x0 MSTORE PUSH1 0x40 PUSH1 0x0 KECCAK256 PUSH1 0x0 SWAP2 POP SWAP1 POP SLOAD DUP2 JUMP JUMPDEST CALLER PUSH20 0xFFFFFFFFFFFFFFFFFFFFFFFFFFFFFFFFFFFFFFFF AND PUSH1 0x4 PUSH1 0x0 DUP5 PUSH20 0xFFFFFFFFFFFFFFFFFFFFFFFFFFFFFFFFFFFFFFFF AND PUSH20 0xFFFFFFFFFFFFFFFFFFFFFFFFFFFFFFFFFFFFFFFF AND DUP2 MSTORE PUSH1 0x20 ADD SWAP1 DUP2 MSTORE PUSH1 0x20 ADD PUSH1 0x0 KECCAK256 PUSH1 0x0 SWAP1 SLOAD SWAP1 PUSH2 0x100 EXP SWAP1 DIV PUSH20 0xFFFFFFFFFFFFFFFFFFFFFFFFFFFFFFFFFFFFFFFF AND PUSH20 0xFFFFFFFFFFFFFFFFFFFFFFFFFFFFFFFFFFFFFFFF AND EQ PUSH2 0x246 JUMPI PUSH1 0x0 DUP1 REVERT JUMPDEST DUP1 PUSH1 0x3 PUSH1 0x0 CALLER PUSH20 0xFFFFFFFFFFFFFFFFFFFFFFFFFFFFFFFFFFFFFFFF AND PUSH20 0xFFFFFFFFFFFFFFFFFFFFFFFFFFFFFFFFFFFFFFFF AND DUP2 MSTORE PUSH1 0x20 ADD SWAP1 DUP2 MSTORE PUSH1 0x20 ADD PUSH1 0x0 KECCAK256 SLOAD LT ISZERO PUSH2 0x2C8 JUMPI PUSH1 0x40 MLOAD PUSH32 0x8C379A000000000000000000000000000000000000000000000000000000000 DUP2 MSTORE PUSH1 0x4 ADD PUSH2 0x2BF SWAP1 PUSH2 0xFDE JUMP JUMPDEST PUSH1 0x40 MLOAD DUP1 SWAP2 SUB SWAP1 REVERT JUMPDEST DUP1 PUSH1 0x3 PUSH1 0x0 CALLER PUSH20 0xFFFFFFFFFFFFFFFFFFFFFFFFFFFFFFFFFFFFFFFF AND PUSH20 0xFFFFFFFFFFFFFFFFFFFFFFFFFFFFFFFFFFFFFFFF AND DUP2 MSTORE PUSH1 0x20 ADD SWAP1 DUP2 MSTORE PUSH1 0x20 ADD PUSH1 0x0 KECCAK256 PUSH1 0x0 DUP3 DUP3 SLOAD PUSH2 0x317 SWAP2 SWAP1 PUSH2 0x102D JUMP JUMPDEST SWAP3 POP POP DUP2 SWAP1 SSTORE POP PUSH1 0x0 DUP1 PUSH1 0x0 SWAP1 SLOAD SWAP1 PUSH2 0x100 EXP SWAP1 DIV PUSH20 0xFFFFFFFFFFFFFFFFFFFFFFFFFFFFFFFFFFFFFFFF AND PUSH20 0xFFFFFFFFFFFFFFFFFFFFFFFFFFFFFFFFFFFFFFFF AND PUSH4 0x23B872DD CALLER DUP6 DUP6 PUSH1 0x40 MLOAD DUP5 PUSH4 0xFFFFFFFF AND PUSH1 0xE0 SHL DUP2 MSTORE PUSH1 0x4 ADD PUSH2 0x37E SWAP4 SWAP3 SWAP2 SWAP1 PUSH2 0x1061 JUMP JUMPDEST PUSH1 0x20 PUSH1 0x40 MLOAD DUP1 DUP4 SUB DUP2 PUSH1 0x0 DUP8 GAS CALL ISZERO DUP1 ISZERO PUSH2 0x39D JUMPI RETURNDATASIZE PUSH1 0x0 DUP1 RETURNDATACOPY RETURNDATASIZE PUSH1 0x0 REVERT JUMPDEST POP POP POP POP PUSH1 0x40 MLOAD RETURNDATASIZE PUSH1 0x1F NOT PUSH1 0x1F DUP3 ADD AND DUP3 ADD DUP1 PUSH1 0x40 MSTORE POP DUP2 ADD SWAP1 PUSH2 0x3C1 SWAP2 SWAP1 PUSH2 0x10D0 JUMP JUMPDEST SWAP1 POP DUP1 PUSH2 0x403 JUMPI PUSH1 0x40 MLOAD PUSH32 0x8C379A000000000000000000000000000000000000000000000000000000000 DUP2 MSTORE PUSH1 0x4 ADD PUSH2 0x3FA SWAP1 PUSH2 0x1149 JUMP JUMPDEST PUSH1 0x40 MLOAD DUP1 SWAP2 SUB SWAP1 REVERT JUMPDEST CALLER PUSH20 0xFFFFFFFFFFFFFFFFFFFFFFFFFFFFFFFFFFFFFFFF AND PUSH32 0xBEF9B5DE8F3D26F5404DFA991D716FACB06B43A40C59C2972953EACA76F82619 DUP4 DUP4 PUSH1 0x40 MLOAD PUSH2 0x44B SWAP3 SWAP2 SWAP1 PUSH2 0x1178 JUMP JUMPDEST PUSH1 0x40 MLOAD DUP1 SWAP2 SUB SWAP1 LOG2 POP POP POP JUMP JUMPDEST PUSH1 0x0 PUSH20 0x28E2B18A77C9968A74BAAC3CAEC4FFCFE195AC62 SWAP1 POP PUSH1 0x0 DUP1 SLOAD SWAP1 PUSH2 0x100 EXP SWAP1 DIV PUSH20 0xFFFFFFFFFFFFFFFFFFFFFFFFFFFFFFFFFFFFFFFF AND PUSH20 0xFFFFFFFFFFFFFFFFFFFFFFFFFFFFFFFFFFFFFFFF AND PUSH4 0x23B872DD CALLER DUP4 DUP7 PUSH1 0x40 MLOAD DUP5 PUSH4 0xFFFFFFFF AND PUSH1 0xE0 SHL DUP2 MSTORE PUSH1 0x4 ADD PUSH2 0x4CE SWAP4 SWAP3 SWAP2 SWAP1 PUSH2 0x1061 JUMP JUMPDEST PUSH1 0x20 PUSH1 0x40 MLOAD DUP1 DUP4 SUB DUP2 PUSH1 0x0 DUP8 GAS CALL ISZERO DUP1 ISZERO PUSH2 0x4ED JUMPI RETURNDATASIZE PUSH1 0x0 DUP1 RETURNDATACOPY RETURNDATASIZE PUSH1 0x0 REVERT JUMPDEST POP POP POP POP PUSH1 0x40 MLOAD RETURNDATASIZE PUSH1 0x1F NOT PUSH1 0x1F DUP3 ADD AND DUP3 ADD DUP1 PUSH1 0x40 MSTORE POP DUP2 ADD SWAP1 PUSH2 0x511 SWAP2 SWAP1 PUSH2 0x10D0 JUMP JUMPDEST PUSH2 0x550 JUMPI PUSH1 0x40 MLOAD PUSH32 0x8C379A000000000000000000000000000000000000000000000000000000000 DUP2 MSTORE PUSH1 0x4 ADD PUSH2 0x547 SWAP1 PUSH2 0x1149 JUMP JUMPDEST PUSH1 0x40 MLOAD DUP1 SWAP2 SUB SWAP1 REVERT JUMPDEST DUP3 PUSH1 0x3 PUSH1 0x0 CALLER PUSH20 0xFFFFFFFFFFFFFFFFFFFFFFFFFFFFFFFFFFFFFFFF AND PUSH20 0xFFFFFFFFFFFFFFFFFFFFFFFFFFFFFFFFFFFFFFFF AND DUP2 MSTORE PUSH1 0x20 ADD SWAP1 DUP2 MSTORE PUSH1 0x20 ADD PUSH1 0x0 KECCAK256 PUSH1 0x0 DUP3 DUP3 SLOAD PUSH2 0x59F SWAP2 SWAP1 PUSH2 0x11A1 JUMP JUMPDEST SWAP3 POP POP DUP2 SWAP1 SSTORE POP DUP1 PUSH1 0x4 PUSH1 0x0 CALLER PUSH20 0xFFFFFFFFFFFFFFFFFFFFFFFFFFFFFFFFFFFFFFFF AND PUSH20 0xFFFFFFFFFFFFFFFFFFFFFFFFFFFFFFFFFFFFFFFF AND DUP2 MSTORE PUSH1 0x20 ADD SWAP1 DUP2 MSTORE PUSH1 0x20 ADD PUSH1 0x0 KECCAK256 PUSH1 0x0 PUSH2 0x100 EXP DUP2 SLOAD DUP2 PUSH20 0xFFFFFFFFFFFFFFFFFFFFFFFFFFFFFFFFFFFFFFFF MUL NOT AND SWAP1 DUP4 PUSH20 0xFFFFFFFFFFFFFFFFFFFFFFFFFFFFFFFFFFFFFFFF AND MUL OR SWAP1 SSTORE POP CALLER PUSH20 0xFFFFFFFFFFFFFFFFFFFFFFFFFFFFFFFFFFFFFFFF AND PUSH32 0x5CA2ABA0CECF0783A090E6862BB44F029273AB9274B1B8763DE309732621E2A1 DUP4 DUP4 DUP7 PUSH1 0x1 PUSH1 0x40 MLOAD PUSH2 0x671 SWAP5 SWAP4 SWAP3 SWAP2 SWAP1 PUSH2 0x11D5 JUMP JUMPDEST PUSH1 0x40 MLOAD DUP1 SWAP2 SUB SWAP1 LOG2 POP POP POP JUMP JUMPDEST CALLER PUSH20 0xFFFFFFFFFFFFFFFFFFFFFFFFFFFFFFFFFFFFFFFF AND PUSH1 0x4 PUSH1 0x0 DUP5 PUSH20 0xFFFFFFFFFFFFFFFFFFFFFFFFFFFFFFFFFFFFFFFF AND PUSH20 0xFFFFFFFFFFFFFFFFFFFFFFFFFFFFFFFFFFFFFFFF AND DUP2 MSTORE PUSH1 0x20 ADD SWAP1 DUP2 MSTORE PUSH1 0x20 ADD PUSH1 0x0 KECCAK256 PUSH1 0x0 SWAP1 SLOAD SWAP1 PUSH2 0x100 EXP SWAP1 DIV PUSH20 0xFFFFFFFFFFFFFFFFFFFFFFFFFFFFFFFFFFFFFFFF AND PUSH20 0xFFFFFFFFFFFFFFFFFFFFFFFFFFFFFFFFFFFFFFFF AND EQ PUSH2 0x74B JUMPI PUSH1 0x40 MLOAD PUSH32 0x8C379A000000000000000000000000000000000000000000000000000000000 DUP2 MSTORE PUSH1 0x4 ADD PUSH2 0x742 SWAP1 PUSH2 0x128C JUMP JUMPDEST PUSH1 0x40 MLOAD DUP1 SWAP2 SUB SWAP1 REVERT JUMPDEST DUP1 PUSH1 0x3 PUSH1 0x0 DUP5 PUSH20 0xFFFFFFFFFFFFFFFFFFFFFFFFFFFFFFFFFFFFFFFF AND PUSH20 0xFFFFFFFFFFFFFFFFFFFFFFFFFFFFFFFFFFFFFFFF AND DUP2 MSTORE PUSH1 0x20 ADD SWAP1 DUP2 MSTORE PUSH1 0x20 ADD PUSH1 0x0 KECCAK256 SLOAD LT ISZERO PUSH2 0x7CD JUMPI PUSH1 0x40 MLOAD PUSH32 0x8C379A000000000000000000000000000000000000000000000000000000000 DUP2 MSTORE PUSH1 0x4 ADD PUSH2 0x7C4 SWAP1 PUSH2 0xFDE JUMP JUMPDEST PUSH1 0x40 MLOAD DUP1 SWAP2 SUB SWAP1 REVERT JUMPDEST PUSH1 0x2 PUSH1 0x0 SWAP1 SLOAD SWAP1 PUSH2 0x100 EXP SWAP1 DIV PUSH20 0xFFFFFFFFFFFFFFFFFFFFFFFFFFFFFFFFFFFFFFFF AND PUSH20 0xFFFFFFFFFFFFFFFFFFFFFFFFFFFFFFFFFFFFFFFF AND PUSH4 0x79CC6790 CALLER DUP4 PUSH1 0x40 MLOAD DUP4 PUSH4 0xFFFFFFFF AND PUSH1 0xE0 SHL DUP2 MSTORE PUSH1 0x4 ADD PUSH2 0x82A SWAP3 SWAP2 SWAP1 PUSH2 0x12AC JUMP JUMPDEST PUSH1 0x0 PUSH1 0x40 MLOAD DUP1 DUP4 SUB DUP2 PUSH1 0x0 DUP8 DUP1 EXTCODESIZE ISZERO DUP1 ISZERO PUSH2 0x844 JUMPI PUSH1 0x0 DUP1 REVERT JUMPDEST POP GAS CALL ISZERO DUP1 ISZERO PUSH2 0x858 JUMPI RETURNDATASIZE PUSH1 0x0 DUP1 RETURNDATACOPY RETURNDATASIZE PUSH1 0x0 REVERT JUMPDEST POP POP POP POP DUP1 PUSH1 0x3 PUSH1 0x0 DUP5 PUSH20 0xFFFFFFFFFFFFFFFFFFFFFFFFFFFFFFFFFFFFFFFF AND PUSH20 0xFFFFFFFFFFFFFFFFFFFFFFFFFFFFFFFFFFFFFFFF AND DUP2 MSTORE PUSH1 0x20 ADD SWAP1 DUP2 MSTORE PUSH1 0x20 ADD PUSH1 0x0 KECCAK256 PUSH1 0x0 DUP3 DUP3 SLOAD PUSH2 0x8AB SWAP2 SWAP1 PUSH2 0x102D JUMP JUMPDEST SWAP3 POP POP DUP2 SWAP1 SSTORE POP DUP2 PUSH20 0xFFFFFFFFFFFFFFFFFFFFFFFFFFFFFFFFFFFFFFFF AND PUSH32 0x2A62A476B1F2333C3E337E119E3924E874C5D2D46E4BA97594D2635F3BBEE7FD DUP3 PUSH1 0x1 PUSH1 0x40 MLOAD PUSH2 0x8FB SWAP3 SWAP2 SWAP1 PUSH2 0x1178 JUMP JUMPDEST PUSH1 0x40 MLOAD DUP1 SWAP2 SUB SWAP1 LOG2 POP POP JUMP JUMPDEST PUSH1 0x0 PUSH1 0x1 PUSH1 0x0 SWAP1 SLOAD SWAP1 PUSH2 0x100 EXP SWAP1 DIV PUSH20 0xFFFFFFFFFFFFFFFFFFFFFFFFFFFFFFFFFFFFFFFF AND SWAP1 POP PUSH1 0x0 DUP2 PUSH20 0xFFFFFFFFFFFFFFFFFFFFFFFFFFFFFFFFFFFFFFFF AND PUSH4 0x4620F3D5 PUSH1 0x40 MLOAD DUP2 PUSH4 0xFFFFFFFF AND PUSH1 0xE0 SHL DUP2 MSTORE PUSH1 0x4 ADD PUSH1 0x80 PUSH1 0x40 MLOAD DUP1 DUP4 SUB DUP2 DUP7 GAS STATICCALL ISZERO DUP1 ISZERO PUSH2 0x97B JUMPI RETURNDATASIZE PUSH1 0x0 DUP1 RETURNDATACOPY RETURNDATASIZE PUSH1 0x0 REVERT JUMPDEST POP POP POP POP PUSH1 0x40 MLOAD RETURNDATASIZE PUSH1 0x1F NOT PUSH1 0x1F DUP3 ADD AND DUP3 ADD DUP1 PUSH1 0x40 MSTORE POP DUP2 ADD SWAP1 PUSH2 0x99F SWAP2 SWAP1 PUSH2 0x1431 JUMP JUMPDEST SWAP1 POP PUSH1 0x0 DUP2 PUSH1 0x1 PUSH1 0x4 DUP2 LT PUSH2 0x9B7 JUMPI PUSH2 0x9B6 PUSH2 0x145E JUMP JUMPDEST JUMPDEST PUSH1 0x20 MUL ADD MLOAD SWAP1 POP PUSH1 0x0 DUP1 PUSH1 0x0 SWAP1 SLOAD SWAP1 PUSH2 0x100 EXP SWAP1 DIV PUSH20 0xFFFFFFFFFFFFFFFFFFFFFFFFFFFFFFFFFFFFFFFF AND PUSH20 0xFFFFFFFFFFFFFFFFFFFFFFFFFFFFFFFFFFFFFFFF AND PUSH4 0x23B872DD CALLER ADDRESS DUP10 PUSH1 0x40 MLOAD DUP5 PUSH4 0xFFFFFFFF AND PUSH1 0xE0 SHL DUP2 MSTORE PUSH1 0x4 ADD PUSH2 0xA1E SWAP4 SWAP3 SWAP2 SWAP1 PUSH2 0x1061 JUMP JUMPDEST PUSH1 0x20 PUSH1 0x40 MLOAD DUP1 DUP4 SUB DUP2 PUSH1 0x0 DUP8 GAS CALL ISZERO DUP1 ISZERO PUSH2 0xA3D JUMPI RETURNDATASIZE PUSH1 0x0 DUP1 RETURNDATACOPY RETURNDATASIZE PUSH1 0x0 REVERT JUMPDEST POP POP POP POP PUSH1 0x40 MLOAD RETURNDATASIZE PUSH1 0x1F NOT PUSH1 0x1F DUP3 ADD AND DUP3 ADD DUP1 PUSH1 0x40 MSTORE POP DUP2 ADD SWAP1 PUSH2 0xA61 SWAP2 SWAP1 PUSH2 0x10D0 JUMP JUMPDEST SWAP1 POP DUP1 PUSH2 0xAA3 JUMPI PUSH1 0x40 MLOAD PUSH32 0x8C379A000000000000000000000000000000000000000000000000000000000 DUP2 MSTORE PUSH1 0x4 ADD PUSH2 0xA9A SWAP1 PUSH2 0x1149 JUMP JUMPDEST PUSH1 0x40 MLOAD DUP1 SWAP2 SUB SWAP1 REVERT JUMPDEST DUP6 PUSH1 0x3 PUSH1 0x0 CALLER PUSH20 0xFFFFFFFFFFFFFFFFFFFFFFFFFFFFFFFFFFFFFFFF AND PUSH20 0xFFFFFFFFFFFFFFFFFFFFFFFFFFFFFFFFFFFFFFFF AND DUP2 MSTORE PUSH1 0x20 ADD SWAP1 DUP2 MSTORE PUSH1 0x20 ADD PUSH1 0x0 KECCAK256 PUSH1 0x0 DUP3 DUP3 SLOAD PUSH2 0xAF2 SWAP2 SWAP1 PUSH2 0x11A1 JUMP JUMPDEST SWAP3 POP POP DUP2 SWAP1 SSTORE POP DUP2 PUSH1 0x4 PUSH1 0x0 CALLER PUSH20 0xFFFFFFFFFFFFFFFFFFFFFFFFFFFFFFFFFFFFFFFF AND PUSH20 0xFFFFFFFFFFFFFFFFFFFFFFFFFFFFFFFFFFFFFFFF AND DUP2 MSTORE PUSH1 0x20 ADD SWAP1 DUP2 MSTORE PUSH1 0x20 ADD PUSH1 0x0 KECCAK256 PUSH1 0x0 PUSH2 0x100 EXP DUP2 SLOAD DUP2 PUSH20 0xFFFFFFFFFFFFFFFFFFFFFFFFFFFFFFFFFFFFFFFF MUL NOT AND SWAP1 DUP4 PUSH20 0xFFFFFFFFFFFFFFFFFFFFFFFFFFFFFFFFFFFFFFFF AND MUL OR SWAP1 SSTORE POP CALLER PUSH20 0xFFFFFFFFFFFFFFFFFFFFFFFFFFFFFFFFFFFFFFFF AND PUSH32 0x6ED60208BD8249A7558DBE8070C8A4FEC80C48BCC0606E7B88F916A601E5C844 DUP7 DUP5 DUP7 DUP11 DUP7 PUSH1 0x40 MLOAD PUSH2 0xBC5 SWAP6 SWAP5 SWAP4 SWAP3 SWAP2 SWAP1 PUSH2 0x1538 JUMP JUMPDEST PUSH1 0x40 MLOAD DUP1 SWAP2 SUB SWAP1 LOG2 POP POP POP POP POP POP JUMP JUMPDEST PUSH1 0x0 DUP1 SLOAD SWAP1 PUSH2 0x100 EXP SWAP1 DIV PUSH20 0xFFFFFFFFFFFFFFFFFFFFFFFFFFFFFFFFFFFFFFFF AND PUSH20 0xFFFFFFFFFFFFFFFFFFFFFFFFFFFFFFFFFFFFFFFF AND PUSH4 0x23B872DD DUP5 DUP5 DUP5 PUSH1 0x40 MLOAD DUP5 PUSH4 0xFFFFFFFF AND PUSH1 0xE0 SHL DUP2 MSTORE PUSH1 0x4 ADD PUSH2 0xC32 SWAP4 SWAP3 SWAP2 SWAP1 PUSH2 0x1061 JUMP JUMPDEST PUSH1 0x20 PUSH1 0x40 MLOAD DUP1 DUP4 SUB DUP2 PUSH1 0x0 DUP8 GAS CALL ISZERO DUP1 ISZERO PUSH2 0xC51 JUMPI RETURNDATASIZE PUSH1 0x0 DUP1 RETURNDATACOPY RETURNDATASIZE PUSH1 0x0 REVERT JUMPDEST POP POP POP POP PUSH1 0x40 MLOAD RETURNDATASIZE PUSH1 0x1F NOT PUSH1 0x1F DUP3 ADD AND DUP3 ADD DUP1 PUSH1 0x40 MSTORE POP DUP2 ADD SWAP1 PUSH2 0xC75 SWAP2 SWAP1 PUSH2 0x10D0 JUMP JUMPDEST PUSH2 0xCB4 JUMPI PUSH1 0x40 MLOAD PUSH32 0x8C379A000000000000000000000000000000000000000000000000000000000 DUP2 MSTORE PUSH1 0x4 ADD PUSH2 0xCAB SWAP1 PUSH2 0x1149 JUMP JUMPDEST PUSH1 0x40 MLOAD DUP1 SWAP2 SUB SWAP1 REVERT JUMPDEST POP POP POP JUMP JUMPDEST PUSH1 0x4 PUSH1 0x20 MSTORE DUP1 PUSH1 0x0 MSTORE PUSH1 0x40 PUSH1 0x0 KECCAK256 PUSH1 0x0 SWAP2 POP SLOAD SWAP1 PUSH2 0x100 EXP SWAP1 DIV PUSH20 0xFFFFFFFFFFFFFFFFFFFFFFFFFFFFFFFFFFFFFFFF AND DUP2 JUMP JUMPDEST PUSH1 0x0 DUP1 SLOAD SWAP1 PUSH2 0x100 EXP SWAP1 DIV PUSH20 0xFFFFFFFFFFFFFFFFFFFFFFFFFFFFFFFFFFFFFFFF AND DUP2 JUMP JUMPDEST PUSH1 0x0 PUSH1 0x40 MLOAD SWAP1 POP SWAP1 JUMP JUMPDEST PUSH1 0x0 DUP1 REVERT JUMPDEST PUSH1 0x0 PUSH20 0xFFFFFFFFFFFFFFFFFFFFFFFFFFFFFFFFFFFFFFFF DUP3 AND SWAP1 POP SWAP2 SWAP1 POP JUMP JUMPDEST PUSH1 0x0 PUSH2 0xD4A DUP3 PUSH2 0xD1F JUMP JUMPDEST SWAP1 POP SWAP2 SWAP1 POP JUMP JUMPDEST PUSH2 0xD5A DUP2 PUSH2 0xD3F JUMP JUMPDEST DUP2 EQ PUSH2 0xD65 JUMPI PUSH1 0x0 DUP1 REVERT JUMPDEST POP JUMP JUMPDEST PUSH1 0x0 DUP2 CALLDATALOAD SWAP1 POP PUSH2 0xD77 DUP2 PUSH2 0xD51 JUMP JUMPDEST SWAP3 SWAP2 POP POP JUMP JUMPDEST PUSH1 0x0 PUSH1 0x20 DUP3 DUP5 SUB SLT ISZERO PUSH2 0xD93 JUMPI PUSH2 0xD92 PUSH2 0xD1A JUMP JUMPDEST JUMPDEST PUSH1 0x0 PUSH2 0xDA1 DUP5 DUP3 DUP6 ADD PUSH2 0xD68 JUMP JUMPDEST SWAP2 POP POP SWAP3 SWAP2 POP POP JUMP JUMPDEST PUSH1 0x0 DUP2 SWAP1 POP SWAP2 SWAP1 POP JUMP JUMPDEST PUSH2 0xDBD DUP2 PUSH2 0xDAA JUMP JUMPDEST DUP3 MSTORE POP POP JUMP JUMPDEST PUSH1 0x0 PUSH1 0x20 DUP3 ADD SWAP1 POP PUSH2 0xDD8 PUSH1 0x0 DUP4 ADD DUP5 PUSH2 0xDB4 JUMP JUMPDEST SWAP3 SWAP2 POP POP JUMP JUMPDEST PUSH2 0xDE7 DUP2 PUSH2 0xDAA JUMP JUMPDEST DUP2 EQ PUSH2 0xDF2 JUMPI PUSH1 0x0 DUP1 REVERT JUMPDEST POP JUMP JUMPDEST PUSH1 0x0 DUP2 CALLDATALOAD SWAP1 POP PUSH2 0xE04 DUP2 PUSH2 0xDDE JUMP JUMPDEST SWAP3 SWAP2 POP POP JUMP JUMPDEST PUSH1 0x0 DUP1 PUSH1 0x40 DUP4 DUP6 SUB SLT ISZERO PUSH2 0xE21 JUMPI PUSH2 0xE20 PUSH2 0xD1A JUMP JUMPDEST JUMPDEST PUSH1 0x0 PUSH2 0xE2F DUP6 DUP3 DUP7 ADD PUSH2 0xD68 JUMP JUMPDEST SWAP3 POP POP PUSH1 0x20 PUSH2 0xE40 DUP6 DUP3 DUP7 ADD PUSH2 0xDF5 JUMP JUMPDEST SWAP2 POP POP SWAP3 POP SWAP3 SWAP1 POP JUMP JUMPDEST PUSH1 0x0 DUP1 PUSH1 0x40 DUP4 DUP6 SUB SLT ISZERO PUSH2 0xE61 JUMPI PUSH2 0xE60 PUSH2 0xD1A JUMP JUMPDEST JUMPDEST PUSH1 0x0 PUSH2 0xE6F DUP6 DUP3 DUP7 ADD PUSH2 0xDF5 JUMP JUMPDEST SWAP3 POP POP PUSH1 0x20 PUSH2 0xE80 DUP6 DUP3 DUP7 ADD PUSH2 0xD68 JUMP JUMPDEST SWAP2 POP POP SWAP3 POP SWAP3 SWAP1 POP JUMP JUMPDEST PUSH1 0x0 DUP1 PUSH1 0x0 PUSH1 0x60 DUP5 DUP7 SUB SLT ISZERO PUSH2 0xEA3 JUMPI PUSH2 0xEA2 PUSH2 0xD1A JUMP JUMPDEST JUMPDEST PUSH1 0x0 PUSH2 0xEB1 DUP7 DUP3 DUP8 ADD PUSH2 0xD68 JUMP JUMPDEST SWAP4 POP POP PUSH1 0x20 PUSH2 0xEC2 DUP7 DUP3 DUP8 ADD PUSH2 0xD68 JUMP JUMPDEST SWAP3 POP POP PUSH1 0x40 PUSH2 0xED3 DUP7 DUP3 DUP8 ADD PUSH2 0xDF5 JUMP JUMPDEST SWAP2 POP POP SWAP3 POP SWAP3 POP SWAP3 JUMP JUMPDEST PUSH2 0xEE6 DUP2 PUSH2 0xD3F JUMP JUMPDEST DUP3 MSTORE POP POP JUMP JUMPDEST PUSH1 0x0 PUSH1 0x20 DUP3 ADD SWAP1 POP PUSH2 0xF01 PUSH1 0x0 DUP4 ADD DUP5 PUSH2 0xEDD JUMP JUMPDEST SWAP3 SWAP2 POP POP JUMP JUMPDEST PUSH1 0x0 DUP2 SWAP1 POP SWAP2 SWAP1 POP JUMP JUMPDEST PUSH1 0x0 PUSH2 0xF2C PUSH2 0xF27 PUSH2 0xF22 DUP5 PUSH2 0xD1F JUMP JUMPDEST PUSH2 0xF07 JUMP JUMPDEST PUSH2 0xD1F JUMP JUMPDEST SWAP1 POP SWAP2 SWAP1 POP JUMP JUMPDEST PUSH1 0x0 PUSH2 0xF3E DUP3 PUSH2 0xF11 JUMP JUMPDEST SWAP1 POP SWAP2 SWAP1 POP JUMP JUMPDEST PUSH1 0x0 PUSH2 0xF50 DUP3 PUSH2 0xF33 JUMP JUMPDEST SWAP1 POP SWAP2 SWAP1 POP JUMP JUMPDEST PUSH2 0xF60 DUP2 PUSH2 0xF45 JUMP JUMPDEST DUP3 MSTORE POP POP JUMP JUMPDEST PUSH1 0x0 PUSH1 0x20 DUP3 ADD SWAP1 POP PUSH2 0xF7B PUSH1 0x0 DUP4 ADD DUP5 PUSH2 0xF57 JUMP JUMPDEST SWAP3 SWAP2 POP POP JUMP JUMPDEST PUSH1 0x0 DUP3 DUP3 MSTORE PUSH1 0x20 DUP3 ADD SWAP1 POP SWAP3 SWAP2 POP POP JUMP JUMPDEST PUSH32 0x496E73756666696369656E742062616C616E6365000000000000000000000000 PUSH1 0x0 DUP3 ADD MSTORE POP JUMP JUMPDEST PUSH1 0x0 PUSH2 0xFC8 PUSH1 0x14 DUP4 PUSH2 0xF81 JUMP JUMPDEST SWAP2 POP PUSH2 0xFD3 DUP3 PUSH2 0xF92 JUMP JUMPDEST PUSH1 0x20 DUP3 ADD SWAP1 POP SWAP2 SWAP1 POP JUMP JUMPDEST PUSH1 0x0 PUSH1 0x20 DUP3 ADD SWAP1 POP DUP2 DUP2 SUB PUSH1 0x0 DUP4 ADD MSTORE PUSH2 0xFF7 DUP2 PUSH2 0xFBB JUMP JUMPDEST SWAP1 POP SWAP2 SWAP1 POP JUMP JUMPDEST PUSH32 0x4E487B7100000000000000000000000000000000000000000000000000000000 PUSH1 0x0 MSTORE PUSH1 0x11 PUSH1 0x4 MSTORE PUSH1 0x24 PUSH1 0x0 REVERT JUMPDEST PUSH1 0x0 PUSH2 0x1038 DUP3 PUSH2 0xDAA JUMP JUMPDEST SWAP2 POP PUSH2 0x1043 DUP4 PUSH2 0xDAA JUMP JUMPDEST SWAP3 POP DUP3 DUP3 SUB SWAP1 POP DUP2 DUP2 GT ISZERO PUSH2 0x105B JUMPI PUSH2 0x105A PUSH2 0xFFE JUMP JUMPDEST JUMPDEST SWAP3 SWAP2 POP POP JUMP JUMPDEST PUSH1 0x0 PUSH1 0x60 DUP3 ADD SWAP1 POP PUSH2 0x1076 PUSH1 0x0 DUP4 ADD DUP7 PUSH2 0xEDD JUMP JUMPDEST PUSH2 0x1083 PUSH1 0x20 DUP4 ADD DUP6 PUSH2 0xEDD JUMP JUMPDEST PUSH2 0x1090 PUSH1 0x40 DUP4 ADD DUP5 PUSH2 0xDB4 JUMP JUMPDEST SWAP5 SWAP4 POP POP POP POP JUMP JUMPDEST PUSH1 0x0 DUP2 ISZERO ISZERO SWAP1 POP SWAP2 SWAP1 POP JUMP JUMPDEST PUSH2 0x10AD DUP2 PUSH2 0x1098 JUMP JUMPDEST DUP2 EQ PUSH2 0x10B8 JUMPI PUSH1 0x0 DUP1 REVERT JUMPDEST POP JUMP JUMPDEST PUSH1 0x0 DUP2 MLOAD SWAP1 POP PUSH2 0x10CA DUP2 PUSH2 0x10A4 JUMP JUMPDEST SWAP3 SWAP2 POP POP JUMP JUMPDEST PUSH1 0x0 PUSH1 0x20 DUP3 DUP5 SUB SLT ISZERO PUSH2 0x10E6 JUMPI PUSH2 0x10E5 PUSH2 0xD1A JUMP JUMPDEST JUMPDEST PUSH1 0x0 PUSH2 0x10F4 DUP5 DUP3 DUP6 ADD PUSH2 0x10BB JUMP JUMPDEST SWAP2 POP POP SWAP3 SWAP2 POP POP JUMP JUMPDEST PUSH32 0x5472616E73666572206661696C65640000000000000000000000000000000000 PUSH1 0x0 DUP3 ADD MSTORE POP JUMP JUMPDEST PUSH1 0x0 PUSH2 0x1133 PUSH1 0xF DUP4 PUSH2 0xF81 JUMP JUMPDEST SWAP2 POP PUSH2 0x113E DUP3 PUSH2 0x10FD JUMP JUMPDEST PUSH1 0x20 DUP3 ADD SWAP1 POP SWAP2 SWAP1 POP JUMP JUMPDEST PUSH1 0x0 PUSH1 0x20 DUP3 ADD SWAP1 POP DUP2 DUP2 SUB PUSH1 0x0 DUP4 ADD MSTORE PUSH2 0x1162 DUP2 PUSH2 0x1126 JUMP JUMPDEST SWAP1 POP SWAP2 SWAP1 POP JUMP JUMPDEST PUSH2 0x1172 DUP2 PUSH2 0x1098 JUMP JUMPDEST DUP3 MSTORE POP POP JUMP JUMPDEST PUSH1 0x0 PUSH1 0x40 DUP3 ADD SWAP1 POP PUSH2 0x118D PUSH1 0x0 DUP4 ADD DUP6 PUSH2 0xDB4 JUMP JUMPDEST PUSH2 0x119A PUSH1 0x20 DUP4 ADD DUP5 PUSH2 0x1169 JUMP JUMPDEST SWAP4 SWAP3 POP POP POP JUMP JUMPDEST PUSH1 0x0 PUSH2 0x11AC DUP3 PUSH2 0xDAA JUMP JUMPDEST SWAP2 POP PUSH2 0x11B7 DUP4 PUSH2 0xDAA JUMP JUMPDEST SWAP3 POP DUP3 DUP3 ADD SWAP1 POP DUP1 DUP3 GT ISZERO PUSH2 0x11CF JUMPI PUSH2 0x11CE PUSH2 0xFFE JUMP JUMPDEST JUMPDEST SWAP3 SWAP2 POP POP JUMP JUMPDEST PUSH1 0x0 PUSH1 0x80 DUP3 ADD SWAP1 POP PUSH2 0x11EA PUSH1 0x0 DUP4 ADD DUP8 PUSH2 0xEDD JUMP JUMPDEST PUSH2 0x11F7 PUSH1 0x20 DUP4 ADD DUP7 PUSH2 0xEDD JUMP JUMPDEST PUSH2 0x1204 PUSH1 0x40 DUP4 ADD DUP6 PUSH2 0xDB4 JUMP JUMPDEST PUSH2 0x1211 PUSH1 0x60 DUP4 ADD DUP5 PUSH2 0x1169 JUMP JUMPDEST SWAP6 SWAP5 POP POP POP POP POP JUMP JUMPDEST PUSH32 0x4F6E6C79207468652064657369676E617465642076616C696461746F72206361 PUSH1 0x0 DUP3 ADD MSTORE PUSH32 0x6E20706572666F726D207468697320616374696F6E0000000000000000000000 PUSH1 0x20 DUP3 ADD MSTORE POP JUMP JUMPDEST PUSH1 0x0 PUSH2 0x1276 PUSH1 0x35 DUP4 PUSH2 0xF81 JUMP JUMPDEST SWAP2 POP PUSH2 0x1281 DUP3 PUSH2 0x121A JUMP JUMPDEST PUSH1 0x40 DUP3 ADD SWAP1 POP SWAP2 SWAP1 POP JUMP JUMPDEST PUSH1 0x0 PUSH1 0x20 DUP3 ADD SWAP1 POP DUP2 DUP2 SUB PUSH1 0x0 DUP4 ADD MSTORE PUSH2 0x12A5 DUP2 PUSH2 0x1269 JUMP JUMPDEST SWAP1 POP SWAP2 SWAP1 POP JUMP JUMPDEST PUSH1 0x0 PUSH1 0x40 DUP3 ADD SWAP1 POP PUSH2 0x12C1 PUSH1 0x0 DUP4 ADD DUP6 PUSH2 0xEDD JUMP JUMPDEST PUSH2 0x12CE PUSH1 0x20 DUP4 ADD DUP5 PUSH2 0xDB4 JUMP JUMPDEST SWAP4 SWAP3 POP POP POP JUMP JUMPDEST PUSH1 0x0 DUP1 REVERT JUMPDEST PUSH1 0x0 PUSH1 0x1F NOT PUSH1 0x1F DUP4 ADD AND SWAP1 POP SWAP2 SWAP1 POP JUMP JUMPDEST PUSH32 0x4E487B7100000000000000000000000000000000000000000000000000000000 PUSH1 0x0 MSTORE PUSH1 0x41 PUSH1 0x4 MSTORE PUSH1 0x24 PUSH1 0x0 REVERT JUMPDEST PUSH2 0x1323 DUP3 PUSH2 0x12DA JUMP JUMPDEST DUP2 ADD DUP2 DUP2 LT PUSH8 0xFFFFFFFFFFFFFFFF DUP3 GT OR ISZERO PUSH2 0x1342 JUMPI PUSH2 0x1341 PUSH2 0x12EB JUMP JUMPDEST JUMPDEST DUP1 PUSH1 0x40 MSTORE POP POP POP JUMP JUMPDEST PUSH1 0x0 PUSH2 0x1355 PUSH2 0xD10 JUMP JUMPDEST SWAP1 POP PUSH2 0x1361 DUP3 DUP3 PUSH2 0x131A JUMP JUMPDEST SWAP2 SWAP1 POP JUMP JUMPDEST PUSH1 0x0 PUSH8 0xFFFFFFFFFFFFFFFF DUP3 GT ISZERO PUSH2 0x1381 JUMPI PUSH2 0x1380 PUSH2 0x12EB JUMP JUMPDEST JUMPDEST PUSH1 0x20 DUP3 MUL SWAP1 POP SWAP2 SWAP1 POP JUMP JUMPDEST PUSH1 0x0 DUP1 REVERT JUMPDEST PUSH1 0x0 DUP2 MLOAD SWAP1 POP PUSH2 0x13A0 DUP2 PUSH2 0xD51 JUMP JUMPDEST SWAP3 SWAP2 POP POP JUMP JUMPDEST PUSH1 0x0 PUSH2 0x13B9 PUSH2 0x13B4 DUP5 PUSH2 0x1366 JUMP JUMPDEST PUSH2 0x134B JUMP JUMPDEST SWAP1 POP DUP1 PUSH1 0x20 DUP5 MUL DUP4 ADD DUP6 DUP2 GT ISZERO PUSH2 0x13D3 JUMPI PUSH2 0x13D2 PUSH2 0x138C JUMP JUMPDEST JUMPDEST DUP4 JUMPDEST DUP2 DUP2 LT ISZERO PUSH2 0x13FC JUMPI DUP1 PUSH2 0x13E8 DUP9 DUP3 PUSH2 0x1391 JUMP JUMPDEST DUP5 MSTORE PUSH1 0x20 DUP5 ADD SWAP4 POP POP PUSH1 0x20 DUP2 ADD SWAP1 POP PUSH2 0x13D5 JUMP JUMPDEST POP POP POP SWAP4 SWAP3 POP POP POP JUMP JUMPDEST PUSH1 0x0 DUP3 PUSH1 0x1F DUP4 ADD SLT PUSH2 0x141B JUMPI PUSH2 0x141A PUSH2 0x12D5 JUMP JUMPDEST JUMPDEST PUSH1 0x4 PUSH2 0x1428 DUP5 DUP3 DUP6 PUSH2 0x13A6 JUMP JUMPDEST SWAP2 POP POP SWAP3 SWAP2 POP POP JUMP JUMPDEST PUSH1 0x0 PUSH1 0x80 DUP3 DUP5 SUB SLT ISZERO PUSH2 0x1447 JUMPI PUSH2 0x1446 PUSH2 0xD1A JUMP JUMPDEST JUMPDEST PUSH1 0x0 PUSH2 0x1455 DUP5 DUP3 DUP6 ADD PUSH2 0x1406 JUMP JUMPDEST SWAP2 POP POP SWAP3 SWAP2 POP POP JUMP JUMPDEST PUSH32 0x4E487B7100000000000000000000000000000000000000000000000000000000 PUSH1 0x0 MSTORE PUSH1 0x32 PUSH1 0x4 MSTORE PUSH1 0x24 PUSH1 0x0 REVERT JUMPDEST PUSH1 0x0 PUSH1 0x4 SWAP1 POP SWAP2 SWAP1 POP JUMP JUMPDEST PUSH1 0x0 DUP2 SWAP1 POP SWAP3 SWAP2 POP POP JUMP JUMPDEST PUSH1 0x0 DUP2 SWAP1 POP SWAP2 SWAP1 POP JUMP JUMPDEST PUSH2 0x14B6 DUP2 PUSH2 0xD3F JUMP JUMPDEST DUP3 MSTORE POP POP JUMP JUMPDEST PUSH1 0x0 PUSH2 0x14C8 DUP4 DUP4 PUSH2 0x14AD JUMP JUMPDEST PUSH1 0x20 DUP4 ADD SWAP1 POP SWAP3 SWAP2 POP POP JUMP JUMPDEST PUSH1 0x0 PUSH1 0x20 DUP3 ADD SWAP1 POP SWAP2 SWAP1 POP JUMP JUMPDEST PUSH2 0x14EA DUP2 PUSH2 0x148D JUMP JUMPDEST PUSH2 0x14F4 DUP2 DUP5 PUSH2 0x1498 JUMP JUMPDEST SWAP3 POP PUSH2 0x14FF DUP3 PUSH2 0x14A3 JUMP JUMPDEST DUP1 PUSH1 0x0 JUMPDEST DUP4 DUP2 LT ISZERO PUSH2 0x1530 JUMPI DUP2 MLOAD PUSH2 0x1517 DUP8 DUP3 PUSH2 0x14BC JUMP JUMPDEST SWAP7 POP PUSH2 0x1522 DUP4 PUSH2 0x14D4 JUMP JUMPDEST SWAP3 POP POP PUSH1 0x1 DUP2 ADD SWAP1 POP PUSH2 0x1503 JUMP JUMPDEST POP POP POP POP POP POP JUMP JUMPDEST PUSH1 0x0 PUSH2 0x100 DUP3 ADD SWAP1 POP PUSH2 0x154E PUSH1 0x0 DUP4 ADD DUP9 PUSH2 0xEDD JUMP JUMPDEST PUSH2 0x155B PUSH1 0x20 DUP4 ADD DUP8 PUSH2 0xEDD JUMP JUMPDEST PUSH2 0x1568 PUSH1 0x40 DUP4 ADD DUP7 PUSH2 0x14E1 JUMP JUMPDEST PUSH2 0x1575 PUSH1 0xC0 DUP4 ADD DUP6 PUSH2 0xDB4 JUMP JUMPDEST PUSH2 0x1582 PUSH1 0xE0 DUP4 ADD DUP5 PUSH2 0x1169 JUMP JUMPDEST SWAP7 SWAP6 POP POP POP POP POP POP JUMP INVALID LOG2 PUSH5 0x6970667358 0x22 SLT KECCAK256 0xD4 PUSH29 0x1F57AB54C5E7C070E7632DC7910313A31C62EDD055A7DF9D839C1F41C8 DUP15 PUSH5 0x736F6C6343 STOP ADDMOD BYTE STOP CALLER "
				},
				"gasEstimates": {
					"creation": {
						"codeDepositCost": "1114000",
						"executionCost": "infinite",
						"totalCost": "infinite"
					},
					"external": {
						"CrossTransactionFail(address,uint256)": "infinite",
						"CrossTransactionSuccess(address,uint256)": "infinite",
						"StartCrossTrans(uint256,address)": "infinite",
						"balances(address)": "2815",
						"executeTransfer(address,address,uint256)": "infinite",
						"test_StartCrossTrans(uint256,address)": "infinite",
						"token()": "infinite",
						"validators(address)": "infinite"
					}
				},
				"methodIdentifiers": {
					"CrossTransactionFail(address,uint256)": "3756f786",
					"CrossTransactionSuccess(address,uint256)": "6a37e3fe",
					"StartCrossTrans(uint256,address)": "925dcd9d",
					"balances(address)": "27e235e3",
					"executeTransfer(address,address,uint256)": "e58ef8a8",
					"test_StartCrossTrans(uint256,address)": "4668a40c",
					"token()": "fc0c546a",
					"validators(address)": "fa52c7d8"
				}
			},
			"storageLayout": {
				"storage": [
					{
						"astId": 854,
						"contract": "contracts/3_Cross_transfer.sol:CrossTrans",
						"label": "token",
						"offset": 0,
						"slot": "0",
						"type": "t_contract(IERC20)729"
					},
					{
						"astId": 856,
						"contract": "contracts/3_Cross_transfer.sol:CrossTrans",
						"label": "routerAddress",
						"offset": 0,
						"slot": "1",
						"type": "t_address"
					},
					{
						"astId": 858,
						"contract": "contracts/3_Cross_transfer.sol:CrossTrans",
						"label": "burnaddr",
						"offset": 0,
						"slot": "2",
						"type": "t_address"
					},
					{
						"astId": 862,
						"contract": "contracts/3_Cross_transfer.sol:CrossTrans",
						"label": "balances",
						"offset": 0,
						"slot": "3",
						"type": "t_mapping(t_address,t_uint256)"
					},
					{
						"astId": 866,
						"contract": "contracts/3_Cross_transfer.sol:CrossTrans",
						"label": "validators",
						"offset": 0,
						"slot": "4",
						"type": "t_mapping(t_address,t_address)"
					}
				],
				"types": {
					"t_address": {
						"encoding": "inplace",
						"label": "address",
						"numberOfBytes": "20"
					},
					"t_contract(IERC20)729": {
						"encoding": "inplace",
						"label": "contract IERC20",
						"numberOfBytes": "20"
					},
					"t_mapping(t_address,t_address)": {
						"encoding": "mapping",
						"key": "t_address",
						"label": "mapping(address => address)",
						"numberOfBytes": "32",
						"value": "t_address"
					},
					"t_mapping(t_address,t_uint256)": {
						"encoding": "mapping",
						"key": "t_address",
						"label": "mapping(address => uint256)",
						"numberOfBytes": "32",
						"value": "t_uint256"
					},
					"t_uint256": {
						"encoding": "inplace",
						"label": "uint256",
						"numberOfBytes": "32"
					}
				}
			},
			"userdoc": {
				"kind": "user",
				"methods": {},
				"version": 1
			}
		}
	}
}